:020000040800F2
:1000000000100020A9070008F5070008F507000800
:1000100000000000000000000000000000000000E0
:10002000000000000000000000000000F5070008CC
:100030000000000000000000F5070008F5070008B8
:10004000F5070008F5070008F5070008F5070008A0
:10005000F5070008F5070008F5070008F507000890
:10006000F5070008F5070008F5070008F507000880
:10007000F507000891180008F5070008F5070008C3
:10008000F5070008F507000800000000F507000864
:10009000F5070008F5070008F5070008F507000850
:1000A000F5070008F5070008F5070008F507000840
:1000B000F507000800000000F50700080000000038
:1000C0005FF808F1162310B588B002AC0093204801
:1000D000231CEE21AA2200F0C9FA227863781202CA
:1000E0001A431C4B1A80A278E17812020A435A8004
:1000F0002279617912020A439A80A279E179120287
:100100000A43DA80227A617A12020A431A81A27AB9
:10011000E17A12020A435A81227B617B12020A436E
:100120009A81A27BE17B12020A43DA81227C617C04
:1001300012020A431A82A27CE17C12020A435A820A
:10014000227D617D12020A439A8208B010BDC0462A
:10015000005400407400002030B50F4D85B0281CBD
:10016000EE21F4222E2300F0CDFA052000F066FEE9
:10017000022303AC0093281C231CEE21F62200F07E
:1001800075FA064B22789A706278DA709878DB7884
:100190000002184305B030BD005400406C00002040
:1001A00038B50A4C65892389451B5D43608AA18A5D
:1001B000ED1300B209B24919C00201F04BFC2D1831
:1001C000A561A0690830001100B238BD740000209C
:1001D00034238201134310B5DBB2041CEE210E4818
:1001E000F42200F08FFA012C11D0002C0BD0022C3D
:1001F00005D0032C02D11B2000F02CFE10BD0E20D8
:1002000000F028FEFAE7052000F024FEF6E70820BB
:1002100000F020FEF2E7C04600540040032330B552
:1002200085B003AC051C00930D48231CEE21F6227B
:1002300000F01CFA22780B4BD2B29A706278D2B2DC
:10024000DA70A278D2B21A719878DA7800041B7941
:1002500012021043184308235B1B184105B030BD40
:10026000005400406C000020F8B54F464646284B2D
:10027000C0B498468C4627498A69CE894B880F8836
:100280008D884244A8461BB2534399464346141CEA
:100290001BB254435A4380238D89241336B22DB2A6
:1002A00066436C4352132414141902341B02A41025
:1002B000E2184B463FB2DB12F612BF00F618BB192C
:1002C0008340C9880233514362469B10D31A124AB5
:1002D000C90B0241101C5843002814DB400001F0F8
:1002E00029FB03125B430D4A534319140C4B434340
:1002F0001A148B180B4A944663441B1118180CBC33
:1003000090469946F8BD01F015FB4000E9E7C0466C
:1003100060F0FFFF7400002050C30000DE0B0000FF
:1003200043E3FFFFCF0E000070B58026B60086B015
:10033000301C012100F0DAF8684600F005F90823C6
:1003400080251B4C0093201C043B6946059300F05C
:10035000E5F8201C012100F00BF9AD02012000F0AE
:1003600017F90422291C201C00F024F9201C00F09D
:1003700027F9201C012100F0EFF8301C002100F0CB
:10038000B5F8281C012100F0A5F8102390206A463A
:1003900000240093C0050F3B694613719471D4711A
:1003A000547100F08BFB034B1C6006B070BDC0465F
:1003B0000024014098000020F021034A53688B4339
:1003C000184350607047C046001002400C213B4A61
:1003D00038B55368041C0B40042B01D0082B52D0B5
:1003E000374820603549374D4B681B061B0FEA5CC8
:1003F000031CD3401A1C63604B685B055B0FEB5C0E
:10040000DA40A2600B6BDB0522D42F4BE3602B4B51
:100410001B6B5B0625D580231B022361274B1B6BBF
:10042000DB0624D5031C6361032324490D6B2B4297
:1004300024D00A6B1A40012A3AD00A6B1A40022AC9
:1004400038D00A6B1340032B01D11D4BA36138BD7B
:100450004B685B0414D45308E360184B1B6B5B06BA
:10046000D9D41A4B2361154B1B6BDB06DAD4144B22
:100470001249636103230D6B2B42DAD1A261E6E7D7
:100480009308E360C3E7506853688002000F851C3F
:10049000DB0303D40E4868432060A3E70F21D36A2F
:1004A00007481940013101F045FA6843206099E797
:1004B000A061CCE780231B02A361C8E700100240C3
:1004C00000127A0000000020809FD50012800000FA
:1004D00000093D00044A5369002902D18343536156
:1004E000704718435061FBE700100240044A9369CB
:1004F000002902D183439361704718439061FBE761
:1005000000100240044AD369002902D18343D36119
:1005100070471843D061FBE7001002400A6810B52D
:100520008C68C3681443CA6814430A6914434A694F
:100530001443044A13400A79234352031343C3600C
:1005400010BDC04603D2FFFF002303600371836028
:10055000C3600361436170478268002903D10223AD
:10056000134383607047012313438360FAE7C04657
:10057000002904D1C268054B1340C3607047802234
:10058000C36812021343C360F8E7C046FF7FFFFF52
:10059000064A002804D11168054B0B4013607047D0
:1005A00080211368C9030B431360F8E70827014053
:1005B000FFFFBFFF836A1943816242617047C046F3
:1005C000802283681206134383608368094ADB0F25
:1005D000DB0705E08368013ADB0FDB07002A01D067
:1005E000002BF7D18368002B01DB006C70470020E3
:1005F000FCE7C046FFEF0000F0B5061C802089B084
:1006000080020121FFF766FFC0239025DB000193E4
:100610000223002701ACED052371281C013B211C9E
:10062000A371E371677100F049FA281C09210422C3
:1006300000F0BEFA0422281C0A2100F0B9FA80203A
:1006400001218003FFF75EFF201C00F071F9064BCB
:10065000301C211C0193676100F038F9301C012126
:1006600000F072F909B0F0BD7B1D2000F0B54746DF
:10067000041C80B490460F1C82B01D1C08AB1E7871
:100680008021201C090200F081F90128F8D0802384
:10069000BFB29B010093201C391C0122002300F0F3
:1006A0005FF9201C012100F071F90028F9D0201C0D
:1006B000414600F065F9201C402100F067F9002850
:1006C000F9D090239B0100938023201C391C321CFD
:1006D0009B0400F045F9002E10D0013EF6B2013621
:1006E000AE19201C042100F051F90028F9D0201C7B
:1006F00000F048F928700135B542F2D102B004BCCF
:100700009046F0BDF0B5041C0D1C171C1E1C83B0D8
:100710008021201C090200F039F90128F8D080233B
:100720009B0100938023A9B2201C02229B0400F0AD
:1007300017F9201C012100F029F90028F9D0201C0C
:10074000391C00F01DF9201C012100F01FF90028C0
:10075000F9D0201C311C00F013F9201C202100F0DE
:1007600015F90028F9D0201C202100F015F903B05C
:10077000F0BDC04608B500F03FF89020FFF71CFE22
:10078000012001F043F8AF20800000F0C3FF0120FA
:1007900001F02EF8FFF7C8FD00F062FB00F050FFFB
:1007A00000F052F8FAE7C0460C488546002103E005
:1007B0000B4B5B58435004310A480B4B42189A428A
:1007C000F6D30A4A02E0002313600432084B9A422F
:1007D000F9D300F041F9FFF7CDFFFEE7001000204C
:1007E0002C3F0008000000205C0000205C0000207E
:1007F000B4080020FEE70000802030B5012183B05E
:1008000080029024FFF766FE684600F0BBF90025E1
:100810006A460123E405201C694613710093957113
:1008200000F04CF9201C012100F0BEF9684600F0F0
:10083000A9F96B461D71DD710823201C69460093E0
:1008400000F03CF903B030BD70B51D4E1D4D03E006
:100850001C4C2368002B0FD090200821C00500F00D
:100860009DF900281DD03378012BF1D12B682C1C69
:10087000013B2B60002BEFD190201021C00500F030
:1008800093F96368002B05D06368013B636063687C
:10089000002BF9D190200121C00500F087F9C04656
:1008A000FDE790200821C00500F078F9002805D167
:1008B0000122034B1A70044A024B1A6070BDC046F5
:1008C0005C00002010000020A086010010B501246B
:1008D0000368A34303600268124B13408A68120244
:1008E00013434A68134303600A680F4B13400361C4
:1008F00003688A691C43002304608360C3600B693A
:100900001343802283608368120213438360036869
:10091000CA68134303604268044B13404A69134397
:10092000436010BDFFE0CF00FFFFFFF0FF7FFF0738
:10093000802200231202036043608360C36003616E
:10094000426183617047C046002904D101220368D7
:100950009343036070470123026813430360F9E780
:1009600030B54468054D89052C40039D890D2C4305
:1009700023430B4312041343436030BD009800FC33
:1009800081627047406AC0B27047C04680690840C3
:10099000411E8841C0B27047C16170470023802169
:1009A00082B02A4A00930193136849020B43A020A6
:1009B000802113608902C00102E0009B834208D0BD
:1009C00013680B400193009B01330093019B002BA4
:1009D000F3D01E4B1A6880239B02134006D00123DC
:1009E0000193019B012B05D002B070470193019B3D
:1009F000012BF9D11122164B80201A60134A800472
:100A000053685360536853605168124B0B40882100
:100A10005360536849030B438021536013684904B2
:100A20000B4313601168094B0142FBD003215A6844
:100A30008A435A60022259680A435A600C211A1CE0
:100A400053680B40082BFBD1CEE7C0460010024094
:100A500000200240FFFFC0FF012108B5114B1A68BA
:100A60000A431A605868104A02405A6018680F4AD0
:100A700002401A6018680E4A02401A6058680D4A0F
:100A800002400F205A60DA6A8243DA62186B0A4A1F
:100A900002401A635A6B8A435A6300229A60FFF736
:100AA0007DFF08BD001002400CB8FF08FFFFF6FEF6
:100AB000FFFFFBFFFFFFC0FFACFEFFFFF0B54446AA
:100AC0005F4656464D46F0B403248C4683B0096811
:100AD000002200230127A04603E001330232102B3D
:100AE00026D03C1C0D1C9C402540A542F5D16446F7
:100AF0002479A346013C012C21D944469440E44387
:100B00000194056801332C4004605C4694400568FC
:100B10002C43454695400460C468AC43C4606446B9
:100B2000E479C56894402C43C4600232102BD8D1BC
:100B300003B03CBC90469946A246AB46F0BD8468E3
:100B4000A146444694404E46E4432640866086686B
:100B50000194B246664676799640B14656464C4672
:100B6000264386608488261CAE4386808488A146FE
:100B70006446A5794C469D402543ADB28580019CD5
:100B8000BFE7C046044B012203600023427103719A
:100B90008371C3717047C046FFFF0000008A0840A0
:100BA000411E8841C0B2704781617047018570471E
:100BB000072310B50F240B409B009A409C40131C48
:100BC000C90889004018016AA1430162016A0B4308
:100BD000036210BD03881F4A9BB290421ED0802240
:100BE000D20590422AD01C4A904227D01B4A9042FC
:100BF00029D01B4A13400A89134303804B68C36200
:100C00000B880385174B984215D0174B984212D08A
:100C1000164B98420FD00123838270477022934372
:100C20004A8813430E4A13400A89134303804B68D2
:100C3000C3620B8803858B7A0386ECE770229343AB
:100C40004A881343D5E703804B68C3620B8803854A
:100C5000E1E7C046002C01400004004000100040C5
:100C6000FFFCFFFF004001400044014000480140FC
:100C700001235B424360002303800381438083722E
:100C80007047C046002904D10122038893430380A2
:100C900070470123028813430380F9E70122038C84
:100CA00070B593430384038C8488058B723295431B
:100CB0000A88A4B21543022293431E1C8A894B88DA
:100CC0001343114A334390420ED0104A90420BD046
:100CD0000F4A904208D00F4A904205D08A6884801B
:100CE00005834263038470BD08229343CA894E8AF8
:100CF0001343042293438A881343074A14400A8A01
:100D000032431443EAE7C046002C01400040014052
:100D10000044014000480140FFFCFFFF1022038C0B
:100D200070B593430384028C1E4B8588048B0E8818
:100D30001C4020239A438B8936021B011A434B889F
:100D400092B21B011A4393B2174A3443ADB2A4B214
:100D500090420FD0154A904205D08A68858004835E
:100D60008263038470BD124A15400A8A92001543BB
:100D7000ADB2F2E70E4A15400A8A9200154380226E
:100D80009343CA89120113430A4A13408A88120105
:100D90001343094A9BB215404A8A92001543ADB2EB
:100DA000DBE7C046FF8CFFFF002C01400040014004
:100DB000FFFBFFFFBFFF0000FFF7000000230380E1
:100DC0004380838083608381C38103824382704731
:100DD0000822038B9343194301837047028B034B13
:100DE00009021340194389B201837047FFF7FFFFDF
:100DF0008389002A02D18B43838170471943818103
:100E0000FBE7C046028A808983B200200A4203D0F1
:100E10001940481E8141C8B27047C046C94389B2D3
:100E20000182704700B589B001A8FFF7CFFA039897
:100E3000029B834200D0400009B000BD044A10600C
:100E40001368002B03D0C0461368002BFBD17047FA
:100E500094000020014B18607047C04694000020A9
:100E600010B50B4C201CFFF7C7FB6420FFF7E6FF13
:100E7000EE21E022B623201CFFF744FC6420FFF79C
:100E8000DDFFFFF71FF90320FFF7A2F910BDC046F1
:100E900000540040F0B556464D465F464446F0B417
:100EA000CE4B8BB09E889946002E00D1F9E20127E7
:100EB00000240025CA4B321CBC469846009401957C
:100EC000634644469F1A013A9300E358BF197B4397
:100ED0000021181C009B019C1B184C4192B20093EE
:100EE0000194002AECD1251C1C1C43460020711ED5
:100EF00089B201318900591804CB80188B42FBD18B
:100F000001F03AF9291C071C201C00F095FE041C76
:100F10000D1C301C01F030F9011C381C00F0A2FE41
:100F200002F004FE4B46061C98680F1C02F0CCFD34
:100F3000021C0B1C301C391C01F0B2FF221C2B1CA4
:100F400002F048FA4B46061C18690F1C02F0EEFD31
:100F50004B46041CD8680D1C02F0B6FD021C0B1C8D
:100F6000201C291C02F036FA0B1C021C391C301CF8
:100F700001F072FC02F02EFE9A4900F0ABFF01F086
:100F8000DBF8994B80461880002800DA26E24B46B1
:100F90009B8A0393984200DD3AE301234A46136497
:100FA000924B1B880093924B1B880593914B1B8897
:100FB0000493138B9A46002B00D124E301211A1CC1
:100FC000874B002400258B469C465B466046991A59
:100FD000013A9300C35851444B4300271E1C92B260
:100FE000A4197D41002AF0D15246511E89B2013127
:100FF000890041186346002004CB80188B42FBD146
:1010000001F0BAF8291C8346201C00F015FE061CCE
:101010000F1C504601F0B0F8011C584600F022FEAB
:1010200002F084FD4B46041CD8690D1C02F04CFDF7
:10103000021C0B1C201C291C01F032FF321C3B1C23
:1010400002F0C8F94B46061C586A0F1C02F06EFDF0
:101050004B46041C186A0D1C02F036FD021C0B1CCA
:10106000201C291C02F0B6F90B1C021C391C301C78
:1010700001F0F2FB02F0AEFD5A4900F02BFF01F047
:101080005BF883B2041C9B460125002801DA002589
:1010900044424B461B8D9A469C4203DD039B9C4277
:1010A00000DA34E1039B9C4200DDABE04B469E8DB1
:1010B000002E00D1A3E20121321C002400258C4621
:1010C000474B61468F1A013A91005958BF1979432D
:1010D0000691002192B207910698079924184D4174
:1010E000002AEED10020711E89B201318900591801
:1010F00004CB80188B42FBD101F03EF8291C071C61
:10110000201C00F099FD041C0D1C301C01F034F86B
:10111000011C381C00F0A6FD02F008FD4B46061C21
:10112000186B0F1C02F0D0FC021C0B1C301C391C6D
:1011300001F0B6FE221C2B1C02F04CF94B46061C9B
:10114000986B0F1C02F0F2FC4B46041C586B0D1CF4
:1011500002F0BAFC021C0B1C201C291C02F03AF9FC
:101160000B1C021C391C301C01F076FB02F032FD16
:101170001C4900F0AFFE00F0DFFF83B2041C0093B7
:101180000125002800DA37E24B469B8FA34203DAA1
:101190000223544500DABBE00223544533DC5A46AF
:1011A000154B1A806A46124B928A1A806A46114B76
:1011B000128A1A8003234A4613646A460B4B12882C
:1011C0001A8000230D4A13700D4A13700BB03CBCFB
:1011D00090469946A246AB46F0BDC0461800002096
:1011E0008006002000007A44F40200205005002010
:1011F000C8010020240400209C0000206000002082
:101200002004002001235946BE4A11806946BE4A87
:10121000898A11806946BD4A098A11804A46136449
:101220006A46BB4B12881A804B461B78002D66D04D
:10123000002B06D1AF20800000F06CFA01234A4653
:1012400013704346682B56DD952B00DCD2E1C72B8B
:1012500000DCCDE1F92B00DCC8E12C23FF339845FD
:1012600000DCC1E15E23FF33984500DCBAE1902346
:10127000FF33984500DCB3E1CC23FF33984500DC15
:10128000ACE1F423FF33984500DCA5E1A14B984580
:1012900000DC9FE1A04B984500DC99E19F4B98450D
:1012A00000DC93E19E4B984500DC8DE19D4B984519
:1012B00000DC87E19C4B984500DC81E19B4B984525
:1012C00000DC7BE19A4B984500DC75E1994B984531
:1012D00000DC69E1FA239B00984503DDC822964BA8
:1012E00052001A800122954B1A704B464A461B6CDD
:1012F000013313646AE70022904B1A70F5E7012B63
:101300009FD18F4800F006FA4B461D7099E70123E4
:1013100059467C4A118069467B4A898A1180694610
:101320007A4A098A11804A4613646A46784B1288C1
:101330001A804B461B78002D00D0A7E0012B00D16E
:101340002CE1682CD7DD952C00DC25E1C72C00DCD6
:1013500020E1F92C00DC1BE12C23FF339C4200DC54
:1013600014E15E23FF339C4200DC0DE19023FF3348
:101370009C4200DC06E1CC23FF339C4200DCFFE012
:10138000F423FF339C4200DCF8E0624B9C4200DC1B
:10139000DCE0614B9C4200DCEEE0604B9C4200DCF8
:1013A000E8E05F4B9C4200DCE2E05E4B9C4200DCEC
:1013B000DCE05D4B9C4200DCD6E05C4B9C4200DCF8
:1013C000D0E05B4B9C4200DCCAE05A4B9C4200DC04
:1013D000C4E0FA239B009C4284DD7FE743429846A9
:1013E0004B469B8A0393984500DCD6E50024554B79
:1013F0001C704B461B78012B04D1514800F08AF930
:101400004B461C704346682B77DD952B73DDC72B4D
:101410006FDDF92B6BDD2C23FF33984565DD5E23F3
:10142000FF3398455FDD9023FF33984559DDCC238A
:10143000FF33984553DDF423FF3398454DDD354B9D
:10144000984548DD344B984543DD344B98453EDDA7
:10145000334B984539DD334B984534DD324B984555
:101460002FDD324B98452ADD314B984525DD314B38
:1014700098451ADDFA239B00984503DDC8222E4BC0
:1014800052001A8001222D4B1A709FE6002B00D0CB
:1014900057E7AF20800000F03DF901234A46137062
:1014A0004FE700240025002733E51123013B264A9E
:1014B0005B009A5A204B1A80DCE71023F6E70F23D3
:1014C000F4E70E23F2E70D23F0E70C23EEE70B23FE
:1014D000ECE70A23EAE70923E8E70823E6E707231E
:1014E000E4E70623E2E70523E0E70423DEE703233E
:1014F000DCE70223DAE70123D8E700220F4B1A705A
:1015000064E6C0469C000020C8010020240400209E
:10151000500500202502000057020000BB02000019
:10152000ED0200001F0300005103000083030000D0
:10153000B5030000E70300007C0600202004002023
:10154000C409000060000020C83D00080923013BD9
:10155000374A5B009A5A374B1A803AE71123F6E76D
:101560001023F4E70F23F2E70E23F0E70D23EEE755
:101570000C23ECE70B23EAE70A23E8E70823E6E776
:101580000723E4E70623E2E70523E0E70423DEE799
:101590000323DCE70223DAE70123D8E7264800F03B
:1015A000B9F84B461D70CCE61123013B204A5B0085
:1015B0009A5A204B1A808DE61023F6E70F23F4E7A2
:1015C0000E23F2E70D23F0E70C23EEE70B23ECE705
:1015D0000A23EAE70923E8E70823E6E70723E4E725
:1015E0000623E2E70523E0E70423DEE70323DCE745
:1015F0000223DAE70123D8E744420025C4E50024AA
:101600000025002781E50023002600279B4600E5F2
:1016100000220A4B1A704B461B78002B00D0F1E6D3
:10162000AF20800000F076F801234A461370E9E607
:10163000C83D00087C060020C409000060000020AE
:10164000F8B5194B1D68002D00D0F8BD0320FEF73A
:10165000E5FD071CFEF780FD061C0320FEF7B8FD24
:10166000124C63686660F0184008FEF799FD391C5B
:101670000320FEF7F9FD8B22071C0D489200061F80
:10168000311C02F055FB23893760C82B08D96389C8
:101690005A1C6281082BD8D1FFF7FCFB6581D4E787
:1016A00001332381D1E7C046940000206000002070
:1016B00084060020837870B5002B09D11F2203789F
:1016C000134913401E3A9A40131C80228B5070BD60
:1016D000032402780E4B95082240D400FF22111CEF
:1016E0009C46C026A140AD006544B600AB598B4373
:1016F000417889010A40A24013431F22AB5103786D
:1017000013401E3A9A40131C62461360DFE7C0463E
:1017100000E100E0F0B54746061C802080B480025E
:1017200086B001219025FEF7D5FE8023002701AC6D
:10173000ED050193281C7E3B211C98462371A7715F
:10174000E7716771FFF7BAF94023281C211C019348
:10175000FFF7B4F9281C07210122FFF729FA01221B
:10176000281C0621FFF724FAFFF75CFB051C01216A
:101770000220FEF7C7FE201CFFF77AFA281C1A4940
:1017800000F0D8F801382080311C174800F062F9C9
:10179000164D461E211C281C6660FFF71BFA211CF3
:1017A000281CFFF717FA201CFFF708FB3023281C22
:1017B0002380211C2F3B76106380A781A660FFF752
:1017C0006DFA4346281C211CA381FFF7A7FA281CA9
:1017D0000821FFF7FDFA281C0821FFF7FFFA06B0E1
:1017E00004BC9046F0BDC046102700000004004035
:1017F00038B5041C044D211C281CFFF743FA281C93
:10180000211CFFF73FFA38BD0004004070B584B0DA
:10181000FFF708FB051C802001AC01210001FEF749
:1018200065FE201CFFF724FAFA21144BC900E818C2
:1018300000F080F80125124E2080211C301C6560CC
:10184000FFF7C8F9301C0121FFF71CFA301C0121F9
:101850000122FFF7CDFA0D23201C23706570A570BF
:10186000FFF728FF0023074A1360074A1370FA2284
:10187000064B92001A8004B070BDC04630F8FFFFDE
:10188000002C0140B0080020200400207C0600202D
:1018900010B521480121FFF7B5FA002800D110BD8D
:1018A0001D480121FFF7BAFA1C4B1D4C1A8823680A
:1018B0009A4211D32368013323602368462B1ED03C
:1018C000184B1A68002A02D01A68013A1A60164AA0
:1018D0001368013B1360E2E7144B1B78012BE9D13D
:1018E00002200121FEF70EFE11480121FFF7CAF97F
:1018F0000F480121FFF7C6F900232360E0E70C48F9
:101900000021FFF7BFF90A480021FFF7BBF90220C9
:101910000021FEF7F7FDD3E7002C01407C060020F4
:10192000B00800209400002098000020200400202F
:1019300000040040002243088B4274D303098B4209
:101940005FD3030A8B4244D3030B8B4228D3030C8F
:101950008B420DD3FF22090212BA030C8B4202D331
:101960001212090265D0030B8B4219D300E0090A59
:10197000C30B8B4201D3CB03C01A5241830B8B4262
:1019800001D38B03C01A5241430B8B4201D34B034B
:10199000C01A5241030B8B4201D30B03C01A5241B0
:1019A000C30A8B4201D3CB02C01A5241830A8B4235
:1019B00001D38B02C01A5241430A8B4201D34B021E
:1019C000C01A5241030A8B4201D30B02C01A524182
:1019D000CDD2C3098B4201D3CB01C01A5241830936
:1019E0008B4201D38B01C01A524143098B4201D370
:1019F0004B01C01A524103098B4201D30B01C01A9B
:101A00005241C3088B4201D3CB00C01A5241830814
:101A10008B4201D38B00C01A524143088B4201D341
:101A20004B00C01A5241411A00D2014652411046A1
:101A30007047FFE701B5002000F0FCF802BDC0468A
:101A40000029F7D003B5FFF775FF0EBC4243891A92
:101A50001847C04603460B437FD4002243088B42FD
:101A600074D303098B425FD3030A8B4244D3030B25
:101A70008B4228D3030C8B420DD3FF22090212BAEA
:101A8000030C8B4202D31212090265D0030B8B4266
:101A900019D300E0090AC30B8B4201D3CB03C01A50
:101AA0005241830B8B4201D38B03C01A5241430B2B
:101AB0008B4201D34B03C01A5241030B8B4201D31B
:101AC0000B03C01A5241C30A8B4201D3CB02C01A86
:101AD0005241830A8B4201D38B02C01A5241430AFE
:101AE0008B4201D34B02C01A5241030A8B4201D3ED
:101AF0000B02C01A5241CDD2C3098B4201D3CB0194
:101B0000C01A524183098B4201D38B01C01A524142
:101B100043098B4201D34B01C01A524103098B4246
:101B200001D30B01C01A5241C3088B4201D3CB0031
:101B3000C01A524183088B4201D38B00C01A524114
:101B400043088B4201D34B00C01A5241411A00D2C4
:101B500001465241104670475DE0CA0F00D049422D
:101B6000031000D34042534000229C4603098B429D
:101B70002DD3030A8B4212D3FC22890112BA030A25
:101B80008B420CD3890192118B4208D389019211A7
:101B90008B4204D389013AD0921100E08909C3092C
:101BA0008B4201D3CB01C01A524183098B4201D32E
:101BB0008B01C01A524143098B4201D34B01C01A19
:101BC000524103098B4201D30B01C01A5241C30891
:101BD0008B4201D3CB00C01A524183088B4201D300
:101BE0008B00C01A5241D9D243088B4201D34B001B
:101BF000C01A5241411A00D20146634652415B105D
:101C0000104601D34042002B00D54942704763463D
:101C10005B1000D3404201B5002000F00BF802BD7C
:101C20000029F8D003B5FFF715FF0EBC4243891A0F
:101C30001847C0467047C04670B5061C081C01F026
:101C400043FF0022064B01F02BF90D1C041C301C35
:101C500001F03AFF2B1C221C00F0D6FA70BDC046E2
:101C60000000F041F0B556464D465F464446F0B49C
:101C700043024500C70F83B08A465C0A2E0EB94660
:101C800041D0FF2E26D080231B042343DC000023F9
:101C900098469B467F3E53465B025D0A53465A0078
:101CA000DB0F120E9A4639D0FF2A33D080231B0453
:101CB0002B43DD0000237F3A5146B21A4646794055
:101CC000081C01921E430F2E00D976E07E4AB60012
:101CD0009659B746002C30D108239846063B9B46C0
:101CE000D9E780230021DB03FF245B02E4055B0AC4
:101CF000C90723430B43181C03B03CBC90469946CC
:101D0000A246AB46F0BD002C28D104239846033BE5
:101D10009B46C0E7002D1FD1022302E0002D11D108
:101D20000123B21A50464646784001921E430F2EB8
:101D300027D86649B60089598F460C239846093B37
:101D40009B46A8E7281C01F0D5FF7622431F52428C
:101D50009D40121A0023AFE70323ADE7201C01F0DA
:101D6000C9FF431F9C4076235B421E1A00239846FE
:101D70009B4690E70025D1469B465B464846022B92
:101D80006FD10121FF2401400023AEE77E23019A99
:101D90005B429B1A1B2B6DDD01214B461940002431
:101DA0000023A2E78023DB031C4249D18023DB030D
:101DB00023435B025B0A391C96E763016D01AB426A
:101DC00037D389461A2001215B1B01241E1C4900C0
:101DD0005B00002E01DBAB4201D35B1B21430138CA
:101DE0000028F3D1581E83410B431D1C019C7F34F6
:101DF000002CCBDD6B0704D00F232B40042B00D02D
:101E000004352B0104D5019A314B8032141C1D403E
:101E1000FE2C07DD4B460121FF241940002364E717
:101E2000251CAAE701214A46AB015B0AE4B2114036
:101E30005BE7019A8946013A01921B200021C4E721
:101E40001D4207D023435B025B0A391C4CE7002587
:101E50006302ABD58023DB032B435B025B0A514655
:101E600042E7032B25D0012BC0D1012100240140E2
:101E700000233AE7291CD9402B1C019A9E3293403B
:101E80005D1EAB410B435A0704D00F221A40042AAF
:101E900000D004335A0105D54B46012101241940D5
:101EA000002322E701214A469B015B0A11400024DE
:101EB0001BE7802301214A46DB032B435B020A40D8
:101EC0005B0A111C10E7C046EC3D00082C3E0008E0
:101ED000FFFFFFF7F0B55F4656464D464446F0B467
:101EE00045024600C40F83B00F1C6D0A360EA34690
:101EF00045D0FF2E25D080231B041D4300239A4686
:101F0000ED007F3E01937B025B0A98467800FB0F51
:101F1000000E994640D0FF2838D0802342461B044B
:101F20001343DB00984600237F384A46019F301850
:101F30006240411C1F430F2F69D87D4EBF00F659E8
:101F4000B746002D45D108230193063B9A46DAE7B0
:101F500093465346022B2FD15B46012400251C409B
:101F6000FF236D02DB056D0AE4071D432543281C92
:101F700003B03CBC90469946A246AB46F0BD002D4E
:101F80002CD104230193033B9A46BCE743465A42B3
:101F900053410322D31AC8E742460123002AC4D082
:101FA000404601F0A7FE4246431F9A4076235B421B
:101FB000181A90460023B8E7032B00D1ADE0012B9F
:101FC00000D08CE05B4654461C40E4B20023002560
:101FD000C7E70C230193093B9A4694E7281C01F0BC
:101FE00089FE7626431F9D4000237642361A0193D0
:101FF0009A4688E780250024ED03FF23B1E7454694
:10200000CB469A46A5E7454693469A46A1E74346FE
:102010002C041B0C9C46230C444626041C1C360C2A
:102020002F0C7443351C66467D4373437743EB188E
:10203000260C9E19B54203D980235B029C46674457
:1020400024043304240C1B199D016C1EA5419B0E16
:10205000360C2B43BD19AD011D432B0104D50123C3
:1020600068081D400543081C031C7F33002B2CDD32
:10207000690704D00F212940042900D00435290123
:1020800003D52C4B1D40031C8033FE2B17DD012490
:10209000FF231440002564E78020C003054209D0D7
:1020A0004346034206D1454605436D026D0A4C4640
:1020B000FF2356E705436D026D0AFF2351E7012414
:1020C000AD016D0ADBB214404BE77E235B421B1A65
:1020D0001B2B07DD012400231440002541E7081CC9
:1020E0005A46C1E79E30291C8540D940681E85416B
:1020F0000D436B0704D00F232B40042B00D0043575
:102100006B0104D5012401231440002529E7012493
:10211000AD016D0A1440002323E78023DB031D4338
:1021200001245B466D0223401C1C6D0AFF2318E747
:102130006C3E0008FFFFFFF74202510A4200C30F46
:10214000120E00207E2A0DDD9D2A0CDC802000046A
:102150000143952A0ADC9620821AD1400A1C584273
:102160004240D0187047034A9818FBE7963A9140CE
:102170000A1CF4E7FFFFFF7F10B5041E35D001F005
:10218000B9FD9E21091A962909DC082830DD021CB8
:10219000231C083A93405B025B0AC8B220E09929ED
:1021A0000CDD0522231C121AD3401A1C031C1B33FE
:1021B0009C40231C5C1EA34113431C1C052801DD0D
:1021C000431F9C400F4B2340620704D00F22144052
:1021D000042C00D004335A010ED49B015B0AC8B210
:1021E0005B025B0AC005184310BD00200023F7E71F
:1021F00063025B0AC8B2F3E79F21024A091A13403F
:10220000EBE7C046FFFFFFFBF0B5454657464E469D
:1022100094464C000A03C90FE0B488460E1C19030B
:10222000470FC500480A6146490F01436046520AFC
:102230001743C0005A00640D520DDB0F84469845C9
:1022400000D1A7E0A01A002800DC01E1002A3DD15E
:1022500063460B4300D0D4E06B0700D188E00F2326
:102260002B40042B00D183E02A1DAA42AD418023DC
:102270006D427F191B043B404646151C002B00D1C4
:102280007CE0CC4B01349C4200D1FDE03A1CCA4BAF
:10229000ED081A405007640552020543120B640D05
:1022A000002112030B0D1B056405120B1A43630872
:1022B000C24CF60714401C43640064083443281CD5
:1022C000211C1CBC90469946A246F0BDB94B9C42CD
:1022D000C2D080231B041943382800DDECE01F28FE
:1022E00000DD21E120220E1C6346121A9640C340F5
:1022F000334366469640321C561EB24113430A1CB5
:10230000C240EB1A9D42B6411D1CBA1A7642971B79
:102310003B0200D497E07A02560A002E00D1B6E0C4
:10232000301C01F0E7FC031C083B1F2B00DDB7E06D
:102330009E40371C28262A1C361AF240161C9D4047
:102340003E439C4200DDB2E01C1B621C1F2A00DDE4
:10235000D8E01F23291C1C1B331CA540A340D140DF
:102360006C1EA541D64019430D43371C002473E76A
:1023700080231B043B40464600D082E78D4BED088E
:1023800078070543FA089C4232D012036405120B09
:10239000640D85E7A31A002B00DC94E0002A3CD0F2
:1023A000844A944200D157E7802212041143382B0B
:1023B00000DC05E163461943481E81410022C8B292
:1023C0004019A8429B41051CD2195B42D7183B0219
:1023D00039D5784B01349C4200D14CE10120764A3A
:1023E0006B083A4028401843D5070543570833E7A0
:1023F0002B1C134348D080231B031A431203120BD8
:102400004EE70138002878D16346EE1AB5429B4169
:102410007A1A5B42D71A351C7AE7021C0A4300D1AC
:102420001AE7013B002B00D0F2E04019A8429B4183
:10243000CA195B42D718051CC9E7131C334300D1E6
:1024400018E1171C351C46466B0700D007E795E7D7
:1024500000287AD1621C5205520D012A00DCFBE0F3
:102460006246AA1A9542B6419146781A7242861A75
:10247000320200D493E06246551BAC458041CF1B2D
:1024800040423E1A984648E70022002508E7281CEB
:1024900001F030FC2030031C083B1F2B00DC47E719
:1024A000283885402E1C00259C4200DC4CE7424A1F
:1024B000E41A1640371CCFE6634619434B1E994178
:1024C0000022CBB21DE7002B00D0F2E0601C4305D8
:1024D0005B0D012B00DCA4E0364B984200D121E1DA
:1024E00063465C19AC429B41CF195B42FA18640801
:1024F000D50725435708041CAEE62E4B9C4200D05E
:10250000EAE6A9E6211C331C1F39CB40191C202AFE
:1025100000D182E03F231C1BA64035436E1EB5410F
:1025200000270D4300248EE7031C0E1C203BDE40D9
:10253000202874D040231B1A99400B1C6246134379
:10254000591E8B4100223343DBE6002C50D0194C3E
:10255000A24200D1A8E08024240440422743382826
:1025600000DDD9E01F2800DD39E120243E1C241ABB
:10257000A640B0462E1CA146C640444626434C46C3
:10258000A5406C1EA541C74035436046451BCF1B87
:10259000AC45894149427F1A141C9846B8E64B461F
:1025A0004D46334300D0B8E600260027002400251E
:1025B000E4E6C046FF070000FFFF7FFFFFFF0F803C
:1025C0001F2B5BDC2022081CD21A904081466046FB
:1025D0009246D8404A461043814652466046904053
:1025E000021C501E8241484610430A1CDA40E7E6AE
:1025F0003C1C2C4358D0C043002851D16046451B99
:10260000AC458041CF1B40423F1A141C98467FE6E0
:102610008F4A944200D0CAE61EE600267DE70023DA
:102620008CE73B1C2B43002C00D0BDE0002B00D1DD
:10263000F5E063460B4300D10EE663465B19AB42FF
:102640008041CA19404217183A0200D4FCE0814A7E
:102650001D1C17400134FFE53A1C2A43002C51D1C0
:10266000002A00D085E062460A4303D00F1C65466D
:102670009846F1E50026002700257FE6181C0A1C75
:102680002038C240202B00D1A7E04020C01A814052
:10269000081C63461843411E8841104300228FE600
:1026A0006B4CA24200D05AE70F1C6546141C98469A
:1026B000D2E5002C3AD1381C284371D0DB43002BE3
:1026C00018D0634882426BD0382B00DD9DE01F2B71
:1026D00000DDA7E020203C1CC01A8440A1462C1C31
:1026E0008246DC404846044350468540681E85418A
:1026F000DF402543654465459B417F185B42FF18D9
:10270000141C64E6002A19D162460A4377D00F1CD4
:10271000654698464E4C9FE53D436F1EBD410027E0
:10272000EDB232E7041C0027002527E64848824224
:1027300036D0802000045B420743C5E762460A4367
:1027400049D08024ED087807FA0824032843224260
:1027500009D0CE08264206D162464F07381CD2085F
:1027600010439846321CD200470F1743C500384C1F
:1027700072E562460A4300D16EE56246AE1AB54282
:102780009241781A5242821A100200D455E66246EB
:10279000551BAC458041CA1B4042171A98465BE561
:1027A0000F1C6546141C57E5002B34D063460B43C1
:1027B00011D08024ED087807FA0824032843224228
:1027C000D1D0CB082342CED162464F07381CD20865
:1027D00010431A1CC7E71E4C3EE5002059E7041CB5
:1027E0003E1C203CE640341C20282BD04026301ACA
:1027F00087403D436F1EBD4100272543C5E6802726
:102800000026FF03124C0025B8E53D436F1EBD4175
:102810000027EDB26EE70F1C65460D4C1CE50F1C42
:10282000654619E51C1C381C203CE040041C202B8C
:102830000CD04020C31A9F403D436F1EBD4100276E
:10284000254357E70027D4E71D1CFCE50027F3E7E5
:10285000FF070000FFFF7FFFF0B55F4656464D467D
:102860004446F0B40F0387B098464D003B0BCC0FA5
:10287000061C924681469B466D0D01946BD0664BBB
:102880009D4235D080275B467F031F43F300994666
:10289000624BFF00400F9C4607430023BB460026C7
:1028A00065440093424617035000D20F53463F0B36
:1028B000400D904600D172E0574A904267D0802385
:1028C0005B031F435346554A5B0FFF001F4394466B
:1028D00053460021DB0060444246624092462D1A76
:1028E0000E430F2E00D9A1E04D48B600805987460F
:1028F0005B461E4300D076E000239B469946023398
:1029000008260093CEE799464346BB4601930091C3
:10291000009B022B6BD1019B9A460021534601225A
:10292000002789461A403C4B00213F030C0D24052B
:102930003F0B27433B4C1B0527401F437F00D2071B
:102940007F0817434846391C07B03CBC904699465F
:10295000A246AB46F0BD03433ED05B46002B00D100
:102960009CE1584601F0C6F92823311C1B1A021CB1
:102970005F46D940083A97400B1C96403B439B4624
:10298000B1460023284D00262D1A00938AE75246AF
:1029900003213A43A0D10027002302219CE752469D
:1029A0003A4315D0002F00D185E1381C01F0A2F97F
:1029B000021C28215046891A131CC8405146083B66
:1029C00099409F400B1C074317480021801A83E75A
:1029D0000027002301217FE700239B46994601330E
:1029E000042600935EE703230C2600935AE7032B8B
:1029F00000D13CE2012B00D0BFE11A1C019B1A4020
:102A000000210023002789468EE70023802799466E
:102A100000223F03004B87E7FF07000001FCFFFF98
:102A2000AC3E0008FFFF0F800DFCFFFFBB4500D947
:102A300051E100D14CE14A46039200225C469046A7
:102A4000013D180E3F0238431B020193030C9946C7
:102A500003041B0C4946061C201C1F1C0093FEF798
:102A600069FF021C7A4302904946201C171CFEF79E
:102A7000E7FF039B09041B0C19438F420CD9029BEF
:102A80008919013B8E4200D952E18F4200D84FE1B3
:102A9000029B8919023B0293CC1B201C4946FEF77E
:102AA00049FF009F834647434946201CFEF7C8FF65
:102AB000039A0B041404240C23439F420DD95A4655
:102AC0009B19013A9E4200D930E19F4200D82DE186
:102AD0000222524294469B19E344029ADB1B1704DC
:102AE0005A463A439346019C170C220C101C049240
:102AF0005A4611042204120C141C090C7C43059242
:102B00004A43414347436118100C09188C4203D9CA
:102B100080204002844667440C0C12040804120C06
:102B20003C198118A34200D2E5E000D1DFE01F1B71
:102B300043465C1AA04592415242BF1AB74200D1A7
:102B40000EE1381C4946FEF7F5FE009B0290434318
:102B50004946381C9846FEF773FF230C0F041F43A9
:102B6000B8450CD9029BBF19013BBE4200D9FBE01E
:102B7000B84500D8F8E0029BBF19023B02934346D8
:102B8000FF1A4946381CFEF7D5FE009B03904343CD
:102B90004946381C9846FEF753FF24040904240CC8
:102BA000214388450CD9039B8919013B8E4200D9EA
:102BB000DCE0884500D8D9E0039B8919023B0393E8
:102BC0004346C91A029B039A1B04059C1A43100C26
:102BD00013049146221C049F1B0C5A4344437B431D
:102BE0007843E318170CDB199C4203D98024640254
:102BF000A44660441C0C12041B04120C00199B1800
:102C0000814200D296E000D1FCE04A4601231A43FB
:102C100091469B4BEB18002B00DC99E04A4652078B
:102C20000AD00F2249460A40042A05D004314945FA
:102C300092418946524293445A46D20106D55A4699
:102C4000904B1A4080239346DB00EB188E4A934248
:102C500000DD62E64A465946D208490711435A4602
:102C600089465702514601225B053F0B5B0D0A4026
:102C70005AE680205A460003024208D0074206D195
:102C800007433F0399463F0B4246804B4CE65F4665
:102C900007433F033F0B221C7C4B45E601F02AF81B
:102CA000031C2030272800DC5EE6083B9E40002302
:102CB000B346994665E6504601F01CF8021C2032E6
:102CC000272A00DC75E657460838874000237BE654
:102CD000994500D2AFE65A46594654084A46C807B5
:102CE0005208024303924A46D2079046A9E60027BB
:102CF000884500D31CE7019F5A46BC46E044B845CE
:102D0000BF417F42BF19FF18013ABE4206D2BC4202
:102D10005FD800D19FE03F1B934609E7B742FAD145
:102D2000019B4345F3D9371B934601E79346D4E60D
:102D30000293B1E64A468919013A8E4218D9914662
:102D4000814200D061E7019A9A4200D05DE760E7D6
:102D50004F4F7F1B382F13DD012253461A404FE699
:102D600001235B42994654E7029308E7039327E760
:102D700088423CD874D0914647E7019B9A4648E781
:102D80001F2F44DC434B4A469C465B466544FA4051
:102D9000AB4013434A46AA40151C6A1E95415A4649
:102DA000FA402B43171C5A0709D00F221A40042A55
:102DB00005D01A1D9A429B415B42FF18131C3A0230
:102DC0003ED55346012200211A400027012389469F
:102DD000AAE502235B429C46019AE3449446E04400
:102DE00090459B415B429B19DF193F1BA0E6019F69
:102DF0004A467C00BC42BF417F42BF19023AC91912
:102E000001949CE7002B95D1002201929BE75A4642
:102E1000214B5B1BDA40202F27D0204B9C465B4682
:102E20006544AB4049460B43591E8B41134307226F
:102E300000271A4007D00F2200271A40042AB8D1D1
:102E40007A077F023F0BDB08134399460122534662
:102E50001A40002368E54145BBD89346002767E642
:102E6000019C9C42C3D391466DE70023DAE780279B
:102E70005B463F031F433F033F0B019A034B53E560
:102E8000FF030000FFFFFFFEFE070000FF0700003A
:102E900002FCFFFF1E040000E2FBFFFF3E040000F7
:102EA000F0B55F4656464D464446F0B4051C061C38
:102EB000080387B099464F00030BCC0F92469B4600
:102EC0007F0D019467D06C4B9F4236D080205B46CB
:102ED00040031843C0006B0F1843684B83469C4661
:102EE00000239846EE00674400934B4649461D0375
:102EF000C90F5B0052462D0B5B0D894600D16EE079
:102F00005D498B4264D080205C4940038C4600219F
:102F10000543ED00500F0543D20063444846FF18B7
:102F20007B1C9A46009B604002900B430F2B00D9FC
:102F3000ACE053489B00C3589F465B461D4300D0FE
:102F400082E00823009300239B4602330026984624
:102F5000CBE7029B01934346022B59D10124002564
:102F60000026019B1C40444B00212D030A0D120535
:102F70002D0B1543434A1B0515401D436D00E40707
:102F80006D082543301C291C07B03CBC904699466F
:102F9000A246AB46F0BD2B434ED05B46002B00D182
:102FA00085E1584600F0A6FE021C2823291C9B1A26
:102FB000161C5846D940083EB0400B1CB540034390
:102FC0009B462E1C0023304F0093BF1A98468CE777
:102FD000514629432ED10025002202219EE7514669
:102FE000294323D0002D00D154E1281C00F082FE9B
:102FF000031C28215046C91A1A1CC8405146083AD9
:10300000914095400A1C05431F480021C31A85E7DB
:10301000032B00D1C2E1012B00D06DE14446019B9E
:1030200000251C40E4B2002300269DE70025002275
:10303000012173E7032171E70423009300239B46DA
:1030400001330026984650E70C230093093B98462D
:103050004BE7802500242D030026074B84E74B46D1
:10306000AB46161C0193884675E7029BAB46161CBF
:10307000019388466FE7C046FF07000001FCFFFF91
:10308000EC3E0008FFFF0F800DFCFFFF330C360401
:10309000360C9C46331C140C1204120C53439846F5
:1030A000634653439946634663430193331C414649
:1030B0006343090C4B445B18994505D980204002B5
:1030C0008146019949440191190C03914146090433
:1030D000090C1B045B1804932B0C9846331C2D041D
:1030E000290C4B43604600934346654658435E4374
:1030F000009B4D431B0C9946AE194E448446B54285
:1031000003D980235B029946CC44350C2B1C0398D1
:10311000634484460593009B36041B041B0CF31880
:103120009C446046039058460504060C280C8446CF
:103130005043351C81466046654344434846000C75
:103140008346724314195C44A24203D9802252027E
:1031500093465D44220CAD184A461204120C240416
:103160004046A41862464A4371434643604600966F
:10317000464670438046100C84468844E0444145EE
:1031800005D9802149028C4600996144009101983B
:1031900003998446614499429B415B429946059854
:1031A000434684461204120C1B049B1863449C463D
:1031B000AB4683429B4140460A19CC44A242894116
:1031C000E344CC45B6415C46000C80464942764219
:1031D0005B426418334398448C428941AB459B4120
:1031E00049425B4219430D1C009B4544EE18760290
:1031F000E50D2E43B346049B56021E43731E9E41AB
:103200005B46D20D324366021643DB010AD5012329
:10321000334076081E435B46DB071E435B465B0874
:103220009B465746634BFB18002B5ADD720709D0AB
:103230000F223240042A05D0321DB242B6417642F6
:10324000B344161C5A46D20106D55A465A4B1A4068
:1032500080239346DB00FB18584A934234DD012457
:10326000029B00251C400026554B7DE680205B46D6
:103270000003034208D0054206D105432D032D0B60
:103280004C46161C4E4B6FE65D4605432D032D0B39
:103290004B4B69E6504600F02DFD031C2033272BD5
:1032A00000DCA6E65546083885400022ACE6281C1E
:1032B00000F020FD021C2032272A00DC75E60838C9
:1032C00085400026AB467DE65A46F608520716436F
:1032D0005A4601245502029A5B052D0B5B0D1440E2
:1032E00042E6384DED1B382D0ADD0124029B0025F6
:1032F0001C400026002337E6019B5746029391E7C6
:103300001F2D25DC304B321C9C466744BE405B467B
:10331000BB40371CEA407E1EB74113433B431E1C93
:103320005B46EB401D1C730709D00F233340042B71
:1033300005D0331DB342B6417642AD191E1C2B0297
:1033400020D50124029B00251C40002601230BE60A
:103350005A461E4BDB1BDA40131C202D1CD01C4A86
:1033600094465A466744BA40171C3E43721E964123
:103370001E4307230025334007D00F230025334089
:10338000042BD6D16B076D022D0B0124F6081E43CA
:10339000029B1C400023E7E50027E6E780255B460B
:1033A00001242D031D43019B2D0323401C1C2D0BC9
:1033B000034BD9E5FF030000FFFFFFFEFE070000FF
:1033C000FF07000002FCFFFF1E040000E2FBFFFFFE
:1033D0003E040000F0B54D4644465F465646F0B404
:1033E0000E1C111C3203520A470F1743C5001A0363
:1033F0005800DB0F9946520A4B0F83B01A43CB009B
:103400000193CF4B7400F60F640DB046400D984207
:1034100000D1E8E00123494659400B1C9E4200D1EF
:10342000B1E0261A002E00DC1CE1002842D1131C5A
:1034300001990B4300D0E6E06B0700D18EE00F232B
:103440002B40042B00D189E02A1DAA42AD418023E4
:10345000012641466D427F191B043B400E40151C5E
:10346000002B00D183E0B64B01349C4200D116E121
:103470003A1CB44BED081A4050076405520205434C
:10348000120B640D002112030B0D1B056405120BBA
:103490001A436308AC4CF60714401C4364006408EC
:1034A0003443281C211C03B03CBC90469946A246DC
:1034B000AB46F0BDA24B9C42BED080231B041A43F6
:1034C000382E00DD03E11F2E00DD3FE12020831BAD
:1034D0009946131C49468B409C46019B6046F3402D
:1034E00003430198F2408840011C481E81410B4370
:1034F000EB1A9D4280411D1CBA1A4042171A3B022A
:1035000000D4A8E07A02560A002E00D1CAE0301C8E
:1035100000F0F0FB031C083B1F2B00DDCBE0282252
:10352000291C121AD1409E400A1C9D4032439C42E5
:1035300000DDC8E01C1B671C1F2F00DDEDE01F2312
:10354000291C1C1B131CA540A340F9406C1EA5415F
:10355000FA4019430D43171C00246DE78023012610
:1035600042461B043B401640002B00D07BE7744BC7
:10357000ED0878070543FA089C423BD01203640526
:10358000120B640D7EE7231A9A46002B00DCA5E09F
:10359000002844D06A48844200D14DE780200004CE
:1035A00002435346382B00DC1CE1019B1A43511E99
:1035B0008A41D1B200224919A94280410D1CD21979
:1035C000404217183B0246D55D4B01349C4200D166
:1035D00069E101205B4A6B083A4028401843D5074F
:1035E0000543570828E7131C01990B4300D111E745
:1035F0004B4613E72B1C134351D080231B031A4364
:103600001203120B3EE7013E002E00D080E0691A43
:103610008D429B41BA1A5B42D71A0D1C6FE7101CF2
:10362000019B184300D107E701235B429C46E2441B
:103630005346002B00D002E1019BD2195919A9422F
:103640009B415B42D7180D1CBCE76346034300D186
:1036500028E1071C65466B0700D0F0E601264346CB
:103660001E4084E7002E00D081E0601C4005400D24
:10367000012800DC07E10199681A84466545B641D6
:10368000B81A7642861B300200D4A1E08C464D1B4E
:10369000AC458941D21B4942561A984634E700226C
:1036A0000025EFE6281C00F025FB2030031C083B1A
:1036B0001F2B00DC33E7021C283A95402A1C00250A
:1036C0009C4200DC36E71F4FE41A1740B4E6019B2A
:1036D0001A43511E8A41D3B2002209E7002B00D0C1
:1036E00001E1601C43055B0D012B00DCB0E0144BD5
:1036F000984200D11EE1019BD2195919A9429B4160
:103700005B42D2184908D5070D435708041C93E6BD
:103710000B4B9C4200D0D3E68EE6211C131C1F39B4
:10372000CB40191C202F00D18EE03F231C1BA24050
:1037300015436A1E954100270D4300248BE7C046C0
:10374000FF070000FFFF7FFFFFFF0F80331C101CEF
:10375000203BD840202E79D040239B1B9A40131C3D
:10376000019A1343591E8B4100220343C0E6002CEB
:1037700053D0C74CA04200D1B0E0802471428946AA
:10378000240427434946382900DDCDE01F2900DD08
:1037900059E120243E1C611A8E408A46B0464946B3
:1037A0002E1CCE405146B4468D406446464649469E
:1037B00026436C1EA541CF4035430199D71B8C464B
:1037C0004D1BAC4592415242BF1A041C984696E6E6
:1037D00063466546334300D096E600260027002462
:1037E0000025C4E61F2B61DC2020C31A9B46131C56
:1037F00059468B4051469946019BCB409C464B46CF
:10380000604603439C465B46019999406346481EC7
:10381000814119435346DA40CDE63C1C2C435DD030
:10382000F1438946002955D10199D21B8C464D1B85
:10383000AC4589414942571A041C98465FE69448B2
:10384000844200D0ADE6F7E5002271E7002387E768
:103850003B1C2B43002C00D0DAE0002B00D113E1FD
:10386000131C01990B4300D1E6E54919A9429B417C
:10387000D2195B42D7183B0200D421E1854B0D1CC5
:103880001F40041CD8E5381C2843002C40D10028D8
:1038900000D083E0101C0199084303D0171C0D1CB5
:1038A0009846C9E500260027002560E65046131C0F
:1038B0002038C340181C5346202B00D1C1E04023C0
:1038C00051465B1A9A40019911434A1E91410022C8
:1038D000014370E66E4CA04200D053E7171C019DD7
:1038E000041C9846A8E5002C28D13C1C2C4300D190
:1038F0008AE0DB439A46002B00D082E0019BD2197C
:103900009C4665449D42894149425718041C59E62A
:1039100000285BD1101C0199084300D1A4E0171CBA
:103920000D1C98465A4C87E53D436F1EBD4100274C
:10393000EDB242E7041C0027002518E6544CA042D3
:1039400062D0534680245B429A4624042743534660
:10395000382B00DD8EE01F2B00DD9DE02024E31AD4
:103960009B463B1C59468B40514699462B1CCB40ED
:103970009C464B46644623439C465B469D406346BB
:103980006C1EA541CF401D43019BBF189C4665445A
:103990009D4292415242BF18041C13E6101C01992B
:1039A000084300D148E5681A844685428041BE1A22
:1039B0004042301A060200D447E68C464D1BAC4507
:1039C0008941D21B4942571A984635E5101C019986
:1039D000084334D080247807ED08FF0824032843E7
:1039E000274208D0D608264205D1C90852070A4303
:1039F000101C371C9846FF00420F1743C500244C8B
:103A00001AE5234CA042A2D1171C019D041C13E50A
:103A1000002B35D0131C01990B4310D0802478075C
:103A2000ED08FF08240328432742E4D0D3082342AB
:103A3000E1D1C90852070A43101C1F1CDBE7144CD4
:103A4000FAE400223FE74C463E1C203CE640494653
:103A5000341C202932D04026761AB7403D436F1ED1
:103A6000BD4100272543A8E680270026FF03084C18
:103A700000257CE53D436F1EBD410027EDB283E785
:103A8000171C019D024CD7E4171C019DD4E4C046CD
:103A9000FF070000FFFF7FFF54463B1C203CE34034
:103AA0001C1C5346202B0DD0402351465B1A9F40CF
:103AB0003D436F1EBD410027254365E70027CDE745
:103AC0000D1CC8E50027F3E710B5041E10D000F068
:103AD00011F9144A121A0A281ADC0B23211C1B1A8A
:103AE000D94015300B03520584401B0B520D01E0E9
:103AF0000022002300211B03201C1C0B0B0D1B05A7
:103B00002343094C1205234013435B00590810BDA1
:103B1000031C0B3B9C40520523031B0B520D00243E
:103B2000E8E7C0461E040000FFFF0F804200120EAF
:103B3000511C38B5C9B243025D0AC40F012915DD15
:103B4000E02189008C466D071B0B62440021281C74
:103B50000D0D2D052B431C4D52052B4052081343D0
:103B60005B00E4075B082343191C38BD002A15D10C
:103B7000002D1FD0281C00F0BDF80A281DDC0B23E7
:103B80002A1C1B1ADA40131C021C153295400F4ADE
:103B90001B03121A52051B0B520DD7E7002D06D03E
:103BA00080221B0B120313436D07094ACEE7084A14
:103BB0000023CBE700220023C8E7031C0B3B9D40FA
:103BC0002B1C0025E3E7C046FFFF0F8089030000A0
:103BD000FF07000070B50B034D00440F6D0D5B0A2D
:103BE00023436C1C6405C90FC200640D012C2ADD3F
:103BF0003B4C2C19FE2C1ADC002C35DD8001451EB7
:103C0000A841DB000343520F13435A0704D00F228D
:103C10001A40042A00D004338022D2041A4027D04C
:103C20000134FF2C03D09B015B0AE4B201E0FF24C6
:103C300000235B02E4055B0A23435B00C9075B08C2
:103C40000B43181C70BD002D06D113430ED1002468
:103C50005B025B0AE4B2ECE71A43E8D08020DB00A9
:103C600080040343FF24D0E717340CDA0523002433
:103C7000DB08FF2CECD1002B2DD08022D203134384
:103C80005B025B0AD5E78024164824042343401BCB
:103C90001F280DDC144CA4466544AB401C1C131CAF
:103CA000AB405D1EAB41C240234313430024ACE74D
:103CB0001E1C0E4C641BE640341C20280DD00C4802
:103CC00084466544AB401D1C2A43531E9A41131C75
:103CD0002343002499E70023ABE70025F4E7C0461F
:103CE00080FCFFFF9E03000082FCFFFF7E030000BC
:103CF000A2FCFFFF1C2101231B04984201D3000CEE
:103D000010391B0A984201D3000A08391B0998424E
:103D100001D30009043902A2105C40187047C04664
:103D20000403020201010101000000000000000084
:103D300070B588420BD98B18984208D2991A531E35
:103D4000002A03D0CA5CC254013BFBD270BD0F2ACB
:103D500009D8051C002AF9D00023CC5CEC540133AF
:103D60009342FAD1F2E7041C0C430B1CA40726D1A2
:103D7000151C041C103D2D0901352D0149191E6823
:103D800026605E6866609E68A660DE681033E66046
:103D900010349942F3D10F2445191440032C10D943
:103DA0000023043CA4080134A400CE58EE50043390
:103DB000A342FAD10324ED18C9182240CAE7051C12
:103DC000CAE7221CC6E7C046C4099808D0070807FE
:103DD0004006AA0514057E041A04B6035203BC0269
:103DE0008A0258022602F401C2019001BA1D00089D
:103DF000821D00089E1D0008761D00089E1D0008FB
:103E0000E21C00089E1D0008761D0008821D0008A7
:103E1000821D0008E21C0008761D0008201E000814
:103E2000201E0008201E0008A41D0008821D000896
:103E3000821D00086A1E0008741D00086A1E000822
:103E4000E21C00086A1E0008741D0008821D00089C
:103E5000821D0008E21C0008741D0008201E0008D6
:103E6000201E0008201E00084E1E00080E2000081C
:103E70000620000806200008FE1F0008501F00084A
:103E8000501F0008F41F0008FE1F0008501F000804
:103E9000F41F0008501F0008FE1F0008521F0008F2
:103EA000521F0008521F0008982000082C2A000802
:103EB0001A290008002A000806290008002A00081C
:103EC0000A2A0008002A0008062900081A29000802
:103ED0001A2900080A2A00080629000810290008E3
:103EE0001029000810290008722C00088C300008E6
:103EF0006A3000086A3000085E300008522F00085F
:103F0000522F0008523000085E300008522F00087F
:103F100052300008522F00085E300008562F00086B
:0C3F2000562F0008562F00086C320008D5
:103F2C000000000001020304010203040607080953
:103F3C00A0860100400D03000100000037000000C6
:103F4C000406000094DE0000007028473B010000CE
:103F5C0069000000BD150000EDF805002004904834
:103F6C008C0000008C0000008E2600004A1B0E0006
:0C3F7C00B0E129496900000001000000CC
:0400000508000000EF
:00000001FF
