:020000040800F2
:1000000000100020110800085D0800085D080008C5
:1000100000000000000000000000000000000000E0
:100020000000000000000000000000005D08000863
:1000300000000000000000005D0800085D080008E6
:100040005D0800085D0800085D0800085D080008FC
:100050005D0800085D0800085D0800085D080008EC
:100060005D0800085D0800085D0800085D080008DC
:100070005D0800083D1300085D0800085D080008E1
:100080005D0800085D080008000000005D08000829
:100090005D0800085D0800085D0800085D080008AC
:1000A0005D0800085D0800085D0800085D0800089C
:1000B0005D080008000000005D0800080000000066
:1000C0005FF808F1162310B588B002AC0093204801
:1000D000231CEE21AA2200F007FB2278637812028B
:1000E0001A431C4B1A80A278E17812020A435A8004
:1000F0002279617912020A439A80A279E179120287
:100100000A43DA80227A617A12020A431A81A27AB9
:10011000E17A12020A435A81227B617B12020A436E
:100120009A81A27BE17B12020A43DA81227C617C04
:1001300012020A431A82A27CE17C12020A435A820A
:10014000227D617D12020A439A8208B010BDC0462A
:10015000005400407400002030B50F4D85B0281CBD
:10016000EE21F4222E2300F003FB052000F030FEE8
:10017000022303AC0093281C231CEE21F62200F07E
:10018000B3FA064B22789A706278DA709878DB7846
:100190000002184305B030BD005400406C00002040
:1001A00038B50A4C65892389451B5D43608AA18A5D
:1001B000ED1300B209B26918C00201F09FF92D18C1
:1001C000A561A0690830001100B238BD740000209C
:1001D00034228301134310B5DBB2041CEE210A481C
:1001E000C03200F0C5FA032C0DD8201C01F0ECF849
:1001F00002040608052004E0082002E00E2000E0CA
:100200001B2000F0EFFD10BD00540040032330B56B
:1002100085B003AD0093041C2B1C0D48EE21F62283
:1002200000F062FA2A780B4BD2B29A706A78D2B296
:10023000DA70AA78D2B21A719878DA7800041B7949
:1002400012021043184308231C1B204105B030BD87
:10025000005400406C000020F7B5264D264BAA69DB
:10026000EC896E88D21836B2564300960F1C2E8841
:10027000A988131C8C46A98953430191614609B290
:100280004A43694689881B1324B209B25C43594327
:10029000802352130914511802311B028910C91806
:1002A000009BE41236B2DB12E318B600F418134BCD
:1002B00084400341181C0234ED88A4103F1B69439D
:1002C0007843C90B002803DB400001F087F802E007
:1002D00001F084F8400003125B43094A53431914A8
:1002E000084B43431A148B18074A9B181B11C0185C
:1002F000FEBDC0467400002060F0FFFF50C3000048
:10030000DE0B000043E3FFFFCF0E000037B5802077
:1003100001218002902500F017F910236A4600247D
:10032000ED05281C009369460F3B13719471D4713D
:10033000547100F0D5FB02236A460093281C013358
:10034000694613719471D471547100F0C9FB37BDC3
:1003500070B58026B60086B0301C012100F000F98F
:10036000684600F02BF9002508230E4C6946201C36
:100370000093059500F00CF9201C012100F02EF9E6
:100380000422201C022100F037F9201C00F039F96A
:10039000201C012100F01AF9301C291C00F0E0F8A3
:1003A00006B070BD0024014008B5074800F03FF9D1
:1003B0000548042100F044F9002801D1C046F7E7C0
:1003C000014800F039F908BD0024014008B5FFF7E5
:1003D000BFFFFFF79BFF0022014B1A6008BDC0461C
:1003E00098000020174B10B51A68002A29DC8020DD
:1003F000154A012180001A6000F0B2F8134A137800
:10040000591C11709B0702D1114800F0FAF8FFF750
:10041000CBFFFA23041C9020FF33C00510219C421F
:1004200008D800F0ABFBC823FF339C4204D89020CF
:100430000121C00500F0A4FB80200021800000F015
:100440008FF810BD98000020102700005C000020ED
:1004500000240140F021034A53688B431843506045
:100460007047C046001002400C2370B5304D041C8C
:100470006A681340042B01D0082B02D02D4B236057
:1004800011E06E686B68B602360F0236DB0301D4EA
:10049000294806E00F23E96A26481940013100F097
:1004A0009DFF4643266021686B680A1C23481B0693
:1004B0001B0FC35CDA40131C62606A685205520F5E
:1004C000825CD340A3602A6BD20501D41C4A06E0AB
:1004D000174A5268520401D45A0800E09A08E260B0
:1004E0002A6B520601D4174A01E0802212022261CF
:1004F0002A6BD20602D40F4A626100E061610322D6
:100500002D6B0B48154211D0036B1340012B01D109
:10051000A1610CE0036B1340022B02D180231B026C
:1005200004E0036B1340032B01D1024BA36170BDA8
:100530000010024000127A0000093D000000002077
:10054000809FD50012800000044B5A69002902D018
:100550001043586101E082435A6170470010024025
:10056000044B9A69002902D01043986101E082434C
:100570009A61704700100240044BDA69002902D0EA
:100580001043D86101E08243DA61704700100240F5
:100590000A6810B58C68C3681443CA6814430A69B2
:1005A00014434A691443044A13400A79234352030B
:1005B0001343C36010BDC04603D2FFFF0023036096
:1005C00003718360C36003614361704783680122E4
:1005D000002900D10222134383607047002904D010
:1005E0008022C3681202134302E0C268014B134029
:1005F000C3607047FF7FFFFF836A194381624261D6
:1006000070478021826809060A43F021031C82603A
:1006100009029A680139D20FD207002901D0002AB5
:10062000F7D100209A68824200DB186C70470422E0
:100630008368134383607047006C80B2704700008A
:10064000CB0103D58068044B184000E000680840E7
:10065000411E8841C0B27047FFFFFFFE13B58020E6
:1006600001218002FFF770FFC023DB006A46009380
:10067000022390241371013B9371D3710023E4058D
:10068000201C6946537100F02BFA201C092104221A
:1006900000F078FA201C0A21042200F073FA13BD3E
:1006A00010B5041C802088B001218003FFF764FF8F
:1006B00001A800F061F9074B201C0193002301A958
:1006C000069300F027F9201C012100F060F908B022
:1006D00010BDC0467B1D200010B5041CFFF7BEFFF7
:1006E000201CFFF7DDFF10BDF0B5041C0E1C85B00B
:1006F0001D1C0AAB1F7803928021201C090200F008
:1007000064F90128F8D08023B6B29B010093201C25
:10071000311C0122002300F043F9201C012100F0CC
:1007200054F90028F9D0201C039900F049F9201C45
:10073000402100F04AF90028F9D090239B01009352
:100740008023311C201C3A1C9B0400F029F9EE196F
:10075000B5420BD0201C042100F037F90028F9D055
:10076000201C00F02FF928700135F1E705B0F0BD2D
:10077000F7B5041C0D1C171C1E1C8021201C09022F
:1007800000F023F90128F8D080239B0100938023F7
:10079000A9B2201C02229B0400F002F9201C0121B6
:1007A00000F013F90028F9D0201C391C00F008F9DA
:1007B000201C012100F009F90028F9D0201C311C6F
:1007C00000F0FEF8201C202100F0FFF80028F9D0EE
:1007D000201C202100F0FFF8F7BD08B500F03FF81D
:1007E0009020FFF737FE012000F090FDAF20800041
:1007F00000F03CFD012000F047FDFFF7E7FD00F0B1
:1008000001FBFFF7EFFD00F057FC00F04FF8F8E7B1
:100810000C488546002103E00B4B5B5843500431E4
:100820000A480B4B42189A42F6D30A4A02E00023C8
:1008300013600432084B9A42F9D300F01FF9FFF716
:10084000CCFFFEE700100020603900080000002007
:100850005C0000205C000020B0080020FEE773B5BB
:100860008020012180029024FFF76EFE684600F090
:1008700073F901266B460025E405201C69461E71AC
:100880009D71009600F02CF9311C201C00F076F9C7
:10089000684600F061F96B461D71DD710823201C6C
:1008A0006946009300F01CF973BD000008B5902064
:1008B0000821C00500F05CF9002816D0124B1A7808
:1008C000124B012A02D11A68013A1A601B68002BE8
:1008D000EDD190200121C00500F052F990201021A7
:1008E000C00500F04BF9C046FDE790200821C00587
:1008F00000F03EF9002805D10122034B1A70044A8A
:10090000024B1A6008BDC0465D00002010000020A8
:10091000A086010010B501240368A34303600268A8
:10092000124B13408A68120213434A681343036050
:100930000F4A0B681A40026103688A692343036007
:1009400000238360C3600B69134380228360836844
:100950001202134383600368CA681343036042684A
:10096000044B13404A691343436010BDFFE0CF00BE
:10097000FFFFFFF0FF7FFF078022002312020360CA
:1009800043608360C36003614261836170470122F9
:100990000368002901D0134300E0934303607047CC
:1009A00030B54468054D89052C40039D890D2C43C5
:1009B00023430B4312041343436030BD009800FCF3
:1009C00081627047406AC0B2704780690840411E2A
:1009D0008841C0B27047C161704700000023802188
:1009E00082B000930193224B49021A680A431A60AD
:1009F0008022196892021140019100990131009101
:100A00000199002904D1A0210098C9018842EFD1A1
:100A100019680A4000D001220192019A012A25D1C9
:100A20001121144A11605A685A605A685A6059680C
:100A3000114A0A4088215A605A6849030A438021B2
:100A40005A601A6849040A431A601968084A8901F9
:100A5000FBD503205168814351605168013801433F
:100A600051600C2259680A40082AFAD102B0704736
:100A70000010024000200240FFFFC0FF012108B526
:100A8000114B1A680A431A605868104A02405A60AB
:100A900018680F4A02401A6018680E4A02401A602D
:100AA00058680D4A02400F205A60DA6A8243DA62BF
:100AB000186B0A4A02401A635A6B8A435A6300222F
:100AC0009A60FFF78BFF08BD001002400CB8FF08CA
:100AD000FFFFF6FEFFFFFBFFFFFFC0FFACFEFFFFC7
:100AE000F7B500220B68019301239340019E1E403D
:100AF0009E422DD10C79631E012B16D85700BC469F
:100B000003276546AF408368BB4383604B798768A2
:100B1000AB403B4383608388B34383808E7987886F
:100B2000331C93403B439BB2838003235600B34066
:100B3000DB43B44007681F40076007683C4304601C
:100B4000C4682340C360CB79C468B3402343C36007
:100B50000132102AC8D1F7BD044B012203600023E3
:100B6000427103718371C3717047C046FFFF00007B
:100B7000008A0840411E8841C0B2704781617047B9
:100B800001857047072310B50F240B409B009A4046
:100B90009C40131CC90889004018016AA1430162E6
:100BA000016A0B43036210BD30B50388154C9BB23C
:100BB000A04206D08022D205904202D0124A904232
:100BC00003D1702293434A881343104A904203D0C2
:100BD0000F4A0D8913402B4303804B68C3620B8877
:100BE0000385A04208D00B4B984205D00A4B98428F
:100BF00002D00A4B984201D18B7A0386012383826B
:100C000030BDC046002C01400004004000100040F0
:100C1000FFFCFFFF0040014000440140004801404C
:100C200001235B424360002303800381438083727E
:100C3000704701220388002901D0134300E0934349
:100C400003807047012270B57324038C934303849F
:100C5000038C8288058B92B2A5430C88254302241D
:100C6000A3431E1C8C894B882343104C3343A04262
:100C700008D00F4CA04205D00E4CA04202D00E4C22
:100C8000A0420DD10824A343CC894E8A23430424D7
:100C9000A3438C882343094C22400C8A34432243CB
:100CA00082808A6805834263038470BD002C014002
:100CB000004001400044014000480140FFFCFFFFAC
:100CC0001022038C70B593430384048C1C4A8388E0
:100CD000058B0E881540202294438A893602120122
:100CE00014434A8835431201A4B2164E14439BB2F2
:100CF000ADB2A2B2B04202D0134CA04219D1134CF3
:100D000023400C8AA40023439BB2B04211D180241B
:100D1000A243CC89240114434022A4B294438A887C
:100D200012011443A2B20A4C23404C8AA40023436C
:100D30009BB283808B6805838363028470BDC04649
:100D4000FF8CFFFF002C014000400140FFFBFFFF34
:100D5000FFF7FFFF0023038043808380836083814C
:100D6000C3810382438270470822038B9343194354
:100D700001837047028B034B09021340194389B268
:100D800001837047FFF7FFFF8389002A02D01943D0
:100D9000818101E08B4383817047028A838900202F
:100DA0009BB20A4203D01940481E8141C8B2704725
:100DB000C94389B20182704700B589B001A8FFF725
:100DC00053FB0398029B834200D0400009B000BD52
:100DD000034B18601A68002A01D0C046FAE7704732
:100DE00094000020014B18607047C046940000201A
:100DF00008B50348EE21E022B623FFF7B9FC08BD91
:100E00000054004008B50848FFF766FC6420FFF76F
:100E1000DFFFFFF7EDFF6420FFF7DAFFFFF752F97E
:100E20000320FFF7D5F908BD0054004070B5041C3D
:100E30000D1E05D1174E3378012B0CD1164807E053
:100E4000012908D1134E3378002B04D1AF20800044
:100E500000F00CFA35700022682C18DD01230F4ACF
:100E60005900895A8C4206DA013B5B00D3189A8CF0
:100E70000B4B1A8002E00133122BF0D1FA239B00B6
:100E80009C4203DDC822064B52001A800122054B0A
:100E90001A7070BD18000020C4090000D83700087F
:100EA0007A06002020040020002330B58A248B25F8
:100EB0000649A4005A1814192468AD005219146088
:100EC000034A043B9342F1D1086030BD7C06002008
:100ED000D4FDFFFFF7B5031C00240025002B10D024
:100EE000C21A013B99008C460132019262460749C1
:100EF00000275158019A9BB251430E1CA4197D4101
:100F0000ECE7201C291C03B0F0BDC0467C06002085
:100F100038B50023041C181C9AB2A24205D2084915
:100F20009A008A5801338018F6E700F079FE051C14
:100F3000201C00F075FE011C281C00F0E7FB38BDEA
:100F40007C060020F7B50588041C281CFFF7C2FFAB
:100F500000900191281CFFF7DBFF02F03BFB061C11
:100F600060680F1C02F004FB021C0B1C301C391CB7
:100F700001F0EAFC061C0F1C0098019900F0B0FB80
:100F8000021C0B1C301C391C01F078FF00900191F1
:100F9000E06802F01FFB061CA0680F1C02F0E8FAD4
:100FA000021C0B1C301C391C01F068FF021C0B1CBE
:100FB0000098019901F0A4F902F060FB024900F0E9
:100FC000DDFC00F00DFEFEBD00007A44F8B51425EE
:100FD00055434519281C161C0F1C1C1CFFF7B2FF9B
:100FE000012E02D16400144B0DE0022E02D16400E8
:100FF000124B08E0032E02D16400114B03E0042ED3
:1010000002D1104B6400E0520121002801DA0021D6
:1010100040422B8A984204DD2B1C143B1B8A9842C9
:1010200005DB143D2A8A0023904203DD3868FFF770
:10103000FDFE0123181CF8BD9C0000204E05002079
:10104000C80100202204002013B5174C201DFFF713
:1010500079FF164B01211880002801DA0021404257
:101060000190A28A0023904204DD114A1370FFF719
:10107000DDFE17E00122181C2264226C022A0BDC20
:1010800001280FD00023201DD2B201A9FFF79EFF37
:10109000236C01332364F0E7002803D1044B18705C
:1010A000044B187013BDC04618000020F402002045
:1010B0006000002020040020F8B5154B1D68002DAD
:1010C00024D10320FFF7A2F8071CFFF745F8061C00
:1010D0000320FFF77DF80F4C63686660F018400846
:1010E000FFF75EF8391C0320FFF7B6F8FFF7DCFEC8
:1010F0002389C82B08D963895A1C6281082B05D122
:10110000FFF7A2FF658101E001332381F8BDC046EE
:101110009400002060000020827870B50378002AD7
:101120001DD0032499082340DC00FF23104A8900C6
:1011300089181A1CC025A240AD004E59964342782A
:1011400092011A40131CA34033434B511F230278D2
:10115000134001229A40131C054A136006E01F2227
:1011600013401E3A9A40131C024AD36770BDC04612
:1011700000E100E004E100E013B5802001218002DD
:10118000FFF7E2F980236A46902400937E3B1371B7
:101190000023E405201C69469371D3715371FFF756
:1011A0009FFC4023201C69460093FFF799FC201CFC
:1011B00007210122FFF7E6FC201C06210122FFF790
:1011C000E1FC13BD7FB5061C01AC0D1C0220012102
:1011D000FFF7D2F9201CFFF723FD301C0A4900F06D
:1011E000FDF801382080291C074800F087F9074DD9
:1011F00001386060211C281CFFF7D6FC281C211C2C
:10120000FFF7D2FC7FBDC04610270000000400405D
:1012100030B587B001AC051C201CFFF79BFD3023C7
:1012200023800023291CA3810E480133638000F032
:1012300065F90D4D01384010A060211C281CFFF7F6
:1012400001FD0223281C211CA381FFF739FD281C66
:101250000821FFF789FD281C0821FFF78BFD07B047
:1012600030BDC046102700000004004010B5041C2B
:10127000FFF782FFFFF7A0FD211CFFF7A3FF201C53
:10128000FFF7C6FF10BD000038B5041C044D211C3B
:10129000281CFFF7CEFC281C211CFFF7CAFC38BD18
:1012A000000400407FB5041C802001AD0121000135
:1012B000FFF756F9281CFFF7B3FCFA210B4BC900C6
:1012C000E01800F08BF80124094E2880291C301CFE
:1012D0006C60FFF769FC301C211CFFF7AAFC301C76
:1012E000211C221CFFF750FD7FBDC04630F8FFFFD8
:1012F000002C014007B50D2201AB1A7098700C3A12
:10130000181C5A70FFF708FF07BD000008B5FFF76B
:1013100053FDFFF7C7FF0120FFF7ECFF0023044A4E
:101320001360044A1370FA22034B92001A8008BD1E
:10133000AC080020200400207A06002038B51C48A4
:101340000121FFF72AFD002831D001211848FFF7BD
:101350002FFD184D184B29681A882B1C91420ED965
:10136000164A1478E4B2012C09D10220211CFFF79F
:1013700003F9201CFFF788FF00232B600CE01A689C
:1013800001321A601B68462B06D10020FFF77CFF54
:1013900002200021FFF7F0F8094B1A68002A02D05A
:1013A0001A68013A1A60074A1368013B136038BD96
:1013B000002C0140AC0800207A0600202004002008
:1013C000940000209800002002B4714649084900AA
:1013D000095C49008E4402BC7047C04600224308A5
:1013E0008B4274D303098B425FD3030A8B4244D3ED
:1013F000030B8B4228D3030C8B420DD3FF2209022F
:1014000012BA030C8B4202D31212090265D0030BED
:101410008B4219D300E0090AC30B8B4201D3CB03E3
:10142000C01A5241830B8B4201D38B03C01A524125
:10143000430B8B4201D34B03C01A5241030B8B4227
:1014400001D30B03C01A5241C30A8B4201D3CB0212
:10145000C01A5241830A8B4201D38B02C01A5241F7
:10146000430A8B4201D34B02C01A5241030A8B42FA
:1014700001D30B02C01A5241CDD2C3098B4201D312
:10148000CB01C01A524183098B4201D38B01C01A90
:10149000524143098B4201D34B01C01A5241030907
:1014A0008B4201D30B01C01A5241C3088B4201D3B6
:1014B000CB00C01A524183088B4201D38B00C01A63
:1014C000524143088B4201D34B00C01A5241411A8A
:1014D00000D20146524110467047FFE701B5002097
:1014E00000F0FCF802BDC0460029F7D003B5FFF7B5
:1014F00075FF0EBC4243891A1847C04603460B438A
:101500007FD4002243088B4274D303098B425FD3FC
:10151000030A8B4244D3030B8B4228D3030C8B4228
:101520000DD3FF22090212BA030C8B4202D312120E
:10153000090265D0030B8B4219D300E0090AC30BE3
:101540008B4201D3CB03C01A5241830B8B4201D390
:101550008B03C01A5241430B8B4201D34B03C01A79
:101560005241030B8B4201D30B03C01A5241C30AF1
:101570008B4201D3CB02C01A5241830A8B4201D362
:101580008B02C01A5241430A8B4201D34B02C01A4C
:101590005241030A8B4201D30B02C01A5241CDD2F1
:1015A000C3098B4201D3CB01C01A524183098B423C
:1015B00001D38B01C01A524143098B4201D34B0125
:1015C000C01A524103098B4201D30B01C01A524188
:1015D000C3088B4201D3CB00C01A524183088B420F
:1015E00001D38B00C01A524143088B4201D34B00F8
:1015F000C01A5241411A00D201465241104670476A
:101600005DE0CA0F00D04942031000D3404253406E
:1016100000229C4603098B422DD3030A8B4212D32E
:10162000FC22890112BA030A8B420CD38901921160
:101630008B4208D3890192118B4204D389013AD09D
:10164000921100E08909C3098B4201D3CB01C01A72
:10165000524183098B4201D38B01C01A5241430985
:101660008B4201D34B01C01A524103098B4201D373
:101670000B01C01A5241C3088B4201D3CB00C01AE0
:10168000524183088B4201D38B00C01A5241D9D2F8
:1016900043088B4201D34B00C01A5241411A00D279
:1016A0000146634652415B10104601D34042002B75
:1016B00000D54942704763465B1000D3404201B5F4
:1016C000002000F00BF802BD0029F8D003B5FFF7A9
:1016D00015FF0EBC4243891A1847C0467047C046E2
:1016E00070B5061C081C01F043FF0022064B01F0F8
:1016F0002BF90D1C041C301C01F03AFF2B1C221C82
:1017000000F0D6FA70BDC0460000F041F0B5564674
:101710004D465F464446F0B443024500C70F83B0D0
:101720008A465C0A2E0EB94641D0FF2E26D0802371
:101730001B042343DC00002398469B467F3E534610
:101740005B025D0A53465A00DB0F120E9A4639D0EF
:10175000FF2A33D080231B042B43DD0000237F3A74
:101760005146B21A46467940081C01921E430F2E7C
:1017700000D976E07E4AB6009659B746002C30D1A3
:1017800008239846063B9B46D9E780230021DB03CC
:10179000FF245B02E4055B0AC90723430B43181CC3
:1017A00003B03CBC90469946A246AB46F0BD002C27
:1017B00028D104239846033B9B46C0E7002D1FD148
:1017C000022302E0002D11D10123B21A50464646F1
:1017D000784001921E430F2E27D86649B6008959DA
:1017E0008F460C239846093B9B46A8E7281C01F02E
:1017F000D5FF7622431F52429D40121A0023AFE7C5
:101800000323ADE7201C01F0C9FF431F9C40762352
:101810005B421E1A002398469B4690E70025D1465E
:101820009B465B464846022B6FD10121FF240140B5
:101830000023AEE77E23019A5B429B1A1B2B6DDDD2
:1018400001214B46194000240023A2E78023DB033B
:101850001C4249D18023DB0323435B025B0A391C12
:1018600096E763016D01AB4237D389461A20012107
:101870005B1B01241E1C49005B00002E01DBAB42F8
:1018800001D35B1B214301380028F3D1581E83414B
:101890000B431D1C019C7F34002CCBDD6B0704D057
:1018A0000F232B40042B00D004352B0104D5019AC3
:1018B000314B8032141C1D40FE2C07DD4B460121AC
:1018C000FF241940002364E7251CAAE701214A46AA
:1018D000AB015B0AE4B211405BE7019A8946013A29
:1018E00001921B200021C4E71D4207D023435B0265
:1018F0005B0A391C4CE700256302ABD58023DB0370
:101900002B435B025B0A514642E7032B25D0012B98
:10191000C0D101210024014000233AE7291CD9400D
:101920002B1C019A9E3293405D1EAB410B435A071C
:1019300004D00F221A40042A00D004335A0105D5DE
:101940004B46012101241940002322E701214A4688
:101950009B015B0A114000241BE7802301214A46BA
:10196000DB032B435B020A405B0A111C10E7C046F5
:101970002038000860380008FFFFFFF7F0B55F4629
:1019800056464D464446F0B445024600C40F83B067
:101990000F1C6D0A360EA34645D0FF2E25D080239E
:1019A0001B041D4300239A46ED007F3E01937B02FA
:1019B0005B0A98467800FB0F000E994640D0FF283E
:1019C00038D0802342461B041343DB009846002393
:1019D0007F384A46019F30186240411C1F430F2F39
:1019E00069D87D4EBF00F659B746002D45D1082372
:1019F0000193063B9A46DAE793465346022B2FD1D2
:101A00005B46012400251C40FF236D02DB056D0AA7
:101A1000E4071D432543281C03B03CBC904699466F
:101A2000A246AB46F0BD002D2CD104230193033B0D
:101A30009A46BCE743465A4253410322D31AC8E7A9
:101A400042460123002AC4D0404601F0A7FE424688
:101A5000431F9A4076235B42181A90460023B8E74A
:101A6000032B00D1ADE0012B00D08CE05B46544647
:101A70001C40E4B200230025C7E70C230193093B77
:101A80009A4694E7281C01F089FE7626431F9D4064
:101A900000237642361A01939A4688E7802500246F
:101AA000ED03FF23B1E74546CB469A46A5E74546F9
:101AB00093469A46A1E743462C041B0C9C46230CF4
:101AC000444626041C1C360C2F0C7443351C6646F9
:101AD0007D4373437743EB18260C9E19B54203D917
:101AE00080235B029C46674424043304240C1B19A6
:101AF0009D016C1EA5419B0E360C2B43BD19AD01FB
:101B00001D432B0104D5012368081D400543081C13
:101B1000031C7F33002B2CDD690704D00F212940E3
:101B2000042900D00435290103D52C4B1D40031C8A
:101B30008033FE2B17DD0124FF231440002564E7CA
:101B40008020C003054209D04346034206D14546E2
:101B500005436D026D0A4C46FF2356E705436D02AF
:101B60006D0AFF2351E70124AD016D0ADBB2144079
:101B70004BE77E235B421B1A1B2B07DD012400234E
:101B80001440002541E7081C5A46C1E79E30291C35
:101B90008540D940681E85410D436B0704D00F2353
:101BA0002B40042B00D004356B0104D50124012304
:101BB0001440002529E70124AD016D0A14400023DB
:101BC00023E78023DB031D4301245B466D02234092
:101BD0001C1C6D0AFF2318E7A0380008FFFFFFF761
:101BE0004202510A4200C30F120E00207E2A0DDD70
:101BF0009D2A0CDC802000040143952A0ADC9620F3
:101C0000821AD1400A1C58424240D0187047034AF9
:101C10009818FBE7963A91400A1CF4E7FFFFFF7F14
:101C200010B5041E35D001F0B9FD9E21091A962980
:101C300009DC082830DD021C231C083A93405B02B3
:101C40005B0AC8B220E099290CDD0522231C121A78
:101C5000D3401A1C031C1B339C40231C5C1EA34155
:101C600013431C1C052801DD431F9C400F4B2340E0
:101C7000620704D00F221440042C00D004335A0110
:101C80000ED49B015B0AC8B25B025B0AC005184315
:101C900010BD00200023F7E763025B0AC8B2F3E738
:101CA0009F21024A091A1340EBE7C046FFFFFFFBE2
:101CB000F0B5454657464E4694464C000A03C90FB8
:101CC000E0B488460E1C1903470FC500480A614658
:101CD000490F01436046520A1743C0005A00640D81
:101CE000520DDB0F8446984500D1A7E0A01A0028CA
:101CF00000DC01E1002A3DD163460B4300D0D4E073
:101D00006B0700D188E00F232B40042B00D183E028
:101D10002A1DAA42AD4180236D427F191B043B401E
:101D20004646151C002B00D17CE0CC4B01349C4274
:101D300000D1FDE03A1CCA4BED081A40500764057B
:101D400052020543120B640D002112030B0D1B05FB
:101D50006405120B1A436308C24CF60714401C4377
:101D6000640064083443281C211C1CBC904699461E
:101D7000A246F0BDB94B9C42C2D080231B0419433C
:101D8000382800DDECE01F2800DD21E120220E1CB8
:101D90006346121A9640C340334366469640321C4F
:101DA000561EB24113430A1CC240EB1A9D42B64173
:101DB0001D1CBA1A7642971B3B0200D497E07A02A8
:101DC000560A002E00D1B6E0301C01F0E7FC031CDF
:101DD000083B1F2B00DDB7E09E40371C28262A1C3D
:101DE000361AF240161C9D403E439C4200DDB2E094
:101DF0001C1B621C1F2A00DDD8E01F23291C1C1B92
:101E0000331CA540A340D1406C1EA541D6401943C8
:101E10000D43371C002473E780231B043B404646D8
:101E200000D082E78D4BED0878070543FA089C4205
:101E300032D012036405120B640D85E7A31A002B40
:101E400000DC94E0002A3CD0844A944200D157E759
:101E5000802212041143382B00DC05E1634619434C
:101E6000481E81410022C8B24019A8429B41051C6E
:101E7000D2195B42D7183B0239D5784B01349C42CA
:101E800000D14CE10120764A6B083A4028401843C3
:101E9000D5070543570833E72B1C134348D080234D
:101EA0001B031A431203120B4EE70138002878D1A6
:101EB0006346EE1AB5429B417A1A5B42D71A351C2B
:101EC0007AE7021C0A4300D11AE7013B002B00D03D
:101ED000F2E04019A8429B41CA195B42D718051C81
:101EE000C9E7131C334300D118E1171C351C4646C3
:101EF0006B0700D007E795E700287AD1621C5205EE
:101F0000520D012A00DCFBE06246AA1A9542B64156
:101F10009146781A7242861A320200D493E06246E1
:101F2000551BAC458041CF1B40423E1A984648E7BE
:101F30000022002508E7281C01F030FC2030031C9B
:101F4000083B1F2B00DC47E7283885402E1C002566
:101F50009C4200DC4CE7424AE41A1640371CCFE6AC
:101F6000634619434B1E99410022CBB21DE7002B5B
:101F700000D0F2E0601C43055B0D012B00DCA4E007
:101F8000364B984200D121E163465C19AC429B413B
:101F9000CF195B42FA186408D50725435708041C7B
:101FA000AEE62E4B9C4200D0EAE6A9E6211C331C8B
:101FB0001F39CB40191C202A00D182E03F231C1B73
:101FC000A64035436E1EB54100270D4300248EE721
:101FD000031C0E1C203BDE40202874D040231B1A1B
:101FE00099400B1C62461343591E8B410022334318
:101FF000DBE6002C50D0194CA24200D1A8E080248E
:10200000240440422743382800DDD9E01F2800DDA2
:1020100039E120243E1C241AA640B0462E1CA146BD
:10202000C640444626434C46A5406C1EA541C740C9
:1020300035436046451BCF1BAC45894149427F1A59
:10204000141C9846B8E64B464D46334300D0B8E6DC
:102050000026002700240025E4E6C046FF07000014
:10206000FFFF7FFFFFFF0F801F2B5BDC2022081C80
:10207000D21A9040814660469246D8404A46104364
:102080008146524660469040021C501E824148469E
:1020900010430A1CDA40E7E63C1C2C4358D0C043EE
:1020A000002851D16046451BAC458041CF1B4042C2
:1020B0003F1A141C98467FE68F4A944200D0CAE625
:1020C0001EE600267DE700238CE73B1C2B43002CFB
:1020D00000D0BDE0002B00D1F5E063460B4300D1FA
:1020E0000EE663465B19AB428041CA19404217189D
:1020F0003A0200D4FCE0814A1D1C17400134FFE580
:102100003A1C2A43002C51D1002A00D085E06246B7
:102110000A4303D00F1C65469846F1E500260027C8
:1021200000257FE6181C0A1C2038C240202B00D155
:10213000A7E04020C01A8140081C63461843411E96
:102140008841104300228FE66B4CA24200D05AE730
:102150000F1C6546141C9846D2E5002C3AD1381C59
:10216000284371D0DB43002B18D0634882426BD0E8
:10217000382B00DD9DE01F2B00DDA7E020203C1C5C
:10218000C01A8440A1462C1C8246DC4048460443C9
:1021900050468540681E8541DF40254365446545BE
:1021A0009B417F185B42FF18141C64E6002A19D17A
:1021B00062460A4377D00F1C654698464E4C9FE511
:1021C0003D436F1EBD410027EDB232E7041C0027DE
:1021D000002527E64848824236D0802000045B4232
:1021E0000743C5E762460A4349D08024ED087807D3
:1021F000FA0824032843224209D0CE08264206D1F9
:1022000062464F07381CD20810439846321CD20051
:10221000470F1743C500384C72E562460A4300D1A8
:102220006EE56246AE1AB5429241781A5242821A5F
:10223000100200D455E66246551BAC458041CA1BCE
:102240004042171A98465BE50F1C6546141C57E57B
:10225000002B34D063460B4311D08024ED0878075F
:10226000FA08240328432242D1D0CB082342CED1FE
:1022700062464F07381CD20810431A1CC7E71E4C91
:102280003EE5002059E7041C3E1C203CE640341C7F
:1022900020282BD04026301A87403D436F1EBD4179
:1022A00000272543C5E680270026FF03124C0025A2
:1022B000B8E53D436F1EBD410027EDB26EE70F1C30
:1022C00065460D4C1CE50F1C654619E51C1C381CA9
:1022D000203CE040041C202B0CD04020C31A9F401F
:1022E0003D436F1EBD410027254357E70027D4E734
:1022F0001D1CFCE50027F3E7FF070000FFFF7FFF41
:10230000F0B55F4656464D464446F0B40F0387B0DD
:1023100098464D003B0BCC0F061C924681469B46CF
:102320006D0D01946BD0664B9D4235D080275B4686
:102330007F031F43F3009946624BFF00400F9C460A
:1023400007430023BB46002665440093424617031B
:102350005000D20F53463F0B400D904600D172E023
:10236000574A904267D080235B031F435346554A28
:102370005B0FFF001F43944653460021DB0060447F
:102380004246624092462D1A0E430F2E00D9A1E01C
:102390004D48B600805987465B461E4300D076E024
:1023A00000239B469946023308260093CEE79946C0
:1023B0004346BB4601930091009B022B6BD1019BCE
:1023C0009A46002153460122002789461A403C4B79
:1023D00000213F030C0D24053F0B27433B4C1B05FD
:1023E00027401F437F00D2077F0817434846391C08
:1023F00007B03CBC90469946A246AB46F0BD0343AD
:102400003ED05B46002B00D19CE1584601F0C6F956
:102410002823311C1B1A021C5F46D940083A9740FA
:102420000B1C96403B439B46B1460023284D00269B
:102430002D1A00938AE7524603213A43A0D1002780
:10244000002302219CE752463A4315D0002F00D1C9
:1024500085E1381C01F0A2F9021C28215046891A96
:10246000131CC8405146083B99409F400B1C074332
:1024700017480021801A83E70027002301217FE706
:1024800000239B4699460133042600935EE703230D
:102490000C2600935AE7032B00D13CE2012B00D01D
:1024A000BFE11A1C019B1A40002100230027894626
:1024B0008EE700238027994600223F03004B87E7E1
:1024C000FF07000001FCFFFFE0380008FFFF0F805E
:1024D0000DFCFFFFBB4500D951E100D14CE14A465C
:1024E000039200225C469046013D180E3F0238439D
:1024F0001B020193030C994603041B0C4946061C5E
:10250000201C1F1C0093FEF769FF021C7A430290F7
:102510004946201C171CFEF7E7FF039B09041B0C10
:1025200019438F420CD9029B8919013B8E4200D975
:1025300052E18F4200D84FE1029B8919023B02937E
:10254000CC1B201C4946FEF749FF009F83464743AA
:102550004946201CFEF7C8FF039A0B041404240C00
:1025600023439F420DD95A469B19013A9E4200D9F6
:1025700030E19F4200D82DE10222524294469B193D
:10258000E344029ADB1B17045A463A439346019CE4
:10259000170C220C101C04925A4611042204120C2F
:1025A000141C090C7C4305924A434143474361187C
:1025B000100C09188C4203D98020400284466744DD
:1025C0000C0C12040804120C3C198118A34200D20E
:1025D000E5E000D1DFE01F1B43465C1AA0459241B5
:1025E0005242BF1AB74200D10EE1381C4946FEF7ED
:1025F000F5FE009B029043434946381C9846FEF77F
:1026000073FF230C0F041F43B8450CD9029BBF195D
:10261000013BBE4200D9FBE0B84500D8F8E0029B80
:10262000BF19023B02934346FF1A4946381CFEF786
:10263000D5FE009B039043434946381C9846FEF75D
:1026400053FF24040904240C214388450CD9039B1F
:102650008919013B8E4200D9DCE0884500D8D9E0D9
:10266000039B8919023B03934346C91A029B039AB1
:102670001B04059C1A43100C13049146221C049F52
:102680001B0C5A4344437B437843E318170CDB1974
:102690009C4203D980246402A44660441C0C1204AA
:1026A0001B04120C00199B18814200D296E000D145
:1026B000FCE04A4601231A4391469B4BEB18002B42
:1026C00000DC99E04A4652070AD00F2249460A40E8
:1026D000042A05D004314945924189465242934427
:1026E0005A46D20106D55A46904B1A40802393464B
:1026F000DB00EB188E4A934200DD62E64A465946FB
:10270000D208490711435A468946570251460122C9
:102710005B053F0B5B0D0A405AE680205A460003DA
:10272000024208D0074206D107433F0399463F0BB8
:102730004246804B4CE65F4607433F033F0B221C5B
:102740007C4B45E601F02AF8031C2030272800DCEA
:102750005EE6083B9E400023B346994665E6504638
:1027600001F01CF8021C2032272A00DC75E65746CF
:102770000838874000237BE6994500D2AFE65A46E9
:10278000594654084A46C8075208024303924A462B
:10279000D2079046A9E60027884500D31CE7019F91
:1027A0005A46BC46E044B845BF417F42BF19FF18B6
:1027B000013ABE4206D2BC425FD800D19FE03F1B27
:1027C000934609E7B742FAD1019B4345F3D9371B3A
:1027D000934601E79346D4E60293B1E64A46891947
:1027E000013A8E4218D99146814200D061E7019AA0
:1027F0009A4200D05DE760E74F4F7F1B382F13DD13
:10280000012253461A404FE601235B42994654E7A2
:10281000029308E7039327E788423CD874D0914697
:1028200047E7019B9A4648E71F2F44DC434B4A4643
:102830009C465B466544FA40AB4013434A46AA4077
:10284000151C6A1E95415A46FA402B43171C5A071D
:1028500009D00F221A40042A05D01A1D9A429B4122
:102860005B42FF18131C3A023ED553460122002159
:102870001A40002701238946AAE502235B429C46B1
:10288000019AE3449446E04490459B415B429B1986
:10289000DF193F1BA0E6019F4A467C00BC42BF41B6
:1028A0007F42BF19023AC91901949CE7002B95D1C8
:1028B000002201929BE75A46214B5B1BDA40202FF6
:1028C00027D0204B9C465B466544AB4049460B43B2
:1028D000591E8B411343072200271A4007D00F22AD
:1028E00000271A40042AB8D17A077F023F0BDB0881
:1028F00013439946012253461A40002368E5414597
:10290000BBD89346002767E6019C9C42C3D39146FF
:102910006DE70023DAE780275B463F031F433F0351
:102920003F0B019A034B53E5FF030000FFFFFFFE3F
:10293000FE070000FF07000002FCFFFF1E0400006E
:10294000E2FBFFFF3E040000F0B55F4656464D46F1
:102950004446F0B4051C061C080387B099464F0096
:10296000030BCC0F92469B467F0D019467D06C4BB6
:102970009F4236D080205B4640031843C0006B0F57
:102980001843684B83469C4600239846EE006744F4
:1029900000934B4649461D03C90F5B0052462D0B61
:1029A0005B0D894600D16EE05D498B4264D080208A
:1029B0005C4940038C4600210543ED00500F054360
:1029C000D20063444846FF187B1C9A46009B604037
:1029D00002900B430F2B00D9ACE053489B00C35827
:1029E0009F465B461D4300D082E0082300930023EE
:1029F0009B46023300269846CBE7029B0193434651
:102A0000022B59D1012400250026019B1C40444B78
:102A100000212D030A0D12052D0B1543434A1B05FA
:102A200015401D436D00E4076D082543301C291C2B
:102A300007B03CBC90469946A246AB46F0BD2B433E
:102A40004ED05B46002B00D185E1584600F0A6FE33
:102A5000021C2823291C9B1A161C5846D940083EE4
:102A6000B0400B1CB54003439B462E1C0023304F47
:102A70000093BF1A98468CE7514629432ED1002572
:102A8000002202219EE75146294323D0002D00D188
:102A900054E1281C00F082FE031C28215046C91A6C
:102AA0001A1CC8405146083A914095400A1C0543FB
:102AB0001F480021C31A85E7032B00D1C2E1012B77
:102AC00000D06DE14446019B00251C40E4B2002388
:102AD00000269DE700250022012173E7032171E70D
:102AE0000423009300239B4601330026984650E7B9
:102AF0000C230093093B98464BE7802500242D03C7
:102B00000026074B84E74B46AB46161C01938846CC
:102B100075E7029BAB46161C019388466FE7C046DB
:102B2000FF07000001FCFFFF20390008FFFF0F80B6
:102B30000DFCFFFF330C3604360C9C46331C140C82
:102B40001204120C53439846634653439946634616
:102B500063430193331C41466343090C4B445B18A8
:102B6000994505D980204002814601994944019147
:102B7000190C039141460904090C1B045B180493CA
:102B80002B0C9846331C2D04290C4B4360460093B4
:102B90004346654658435E43009B4D431B0C994694
:102BA000AE194E448446B54203D980235B02994650
:102BB000CC44350C2B1C0398634484460593009B3E
:102BC00036041B041B0CF3189C44604603905846C3
:102BD0000504060C280C84465043351C814660468B
:102BE000654344434846000C8346724314195C44D1
:102BF000A24203D98022520293465D44220CAD18B2
:102C00004A461204120C24044046A41862464A4361
:102C10007143464360460096464670438046100C1A
:102C200084468844E044414505D9802149028C46C8
:102C30000099614400910198039984466144994246
:102C40009B415B4299460598434684461204120C08
:102C50001B049B1863449C46AB4683429B41404601
:102C60000A19CC44A2428941E344CC45B6415C46B2
:102C7000000C8046494276425B42641833439844D4
:102C80008C428941AB459B4149425B4219430D1C33
:102C9000009B4544EE187602E50D2E43B346049B97
:102CA00056021E43731E9E415B46D20D324366029E
:102CB0001643DB010AD50123334076081E435B46E9
:102CC000DB071E435B465B089B465746634BFB187E
:102CD000002B5ADD720709D00F223240042A05D09A
:102CE000321DB242B6417642B344161C5A46D20156
:102CF00006D55A465A4B1A4080239346DB00FB18F0
:102D0000584A934234DD0124029B00251C400026D2
:102D1000554B7DE680205B460003034208D0054208
:102D200006D105432D032D0B4C46161C4E4B6FE66A
:102D30005D4605432D032D0B4B4B69E6504600F0D5
:102D40002DFD031C2033272B00DCA6E65546083852
:102D500085400022ACE6281C00F020FD021C203239
:102D6000272A00DC75E6083885400026AB467DE65C
:102D70005A46F608520716435A4601245502029A4B
:102D80005B052D0B5B0D144042E6384DED1B382DD5
:102D90000ADD0124029B00251C400026002337E6A3
:102DA000019B5746029391E71F2D25DC304B321CC7
:102DB0009C466744BE405B46BB40371CEA407E1ED3
:102DC000B74113433B431E1C5B46EB401D1C73077E
:102DD00009D00F233340042B05D0331DB342B64135
:102DE0007642AD191E1C2B0220D50124029B002522
:102DF0001C40002601230BE65A461E4BDB1BDA4023
:102E0000131C202D1CD01C4A94465A466744BA40D5
:102E1000171C3E43721E96411E4307230025334074
:102E200007D00F2300253340042BD6D16B076D024A
:102E30002D0B0124F6081E43029B1C400023E7E5EE
:102E40000027E6E780255B4601242D031D43019BF7
:102E50002D0323401C1C2D0B034BD9E5FF03000061
:102E6000FFFFFFFEFE070000FF07000002FCFFFF60
:102E70001E040000E2FBFFFF3E040000F0B54D46DB
:102E800044465F465646F0B40E1C111C3203520AEB
:102E9000470F1743C5001A035800DB0F9946520A23
:102EA0004B0F83B01A43CB000193CF4B7400F60F46
:102EB000640DB046400D984200D1E8E00123494638
:102EC00059400B1C9E4200D1B1E0261A002E00DCB6
:102ED0001CE1002842D1131C01990B4300D0E6E00D
:102EE0006B0700D18EE00F232B40042B00D189E02B
:102EF0002A1DAA42AD418023012641466D427F1919
:102F00001B043B400E40151C002B00D183E0B64B48
:102F100001349C4200D116E13A1CB44BED081A4032
:102F20005007640552020543120B640D0021120381
:102F30000B0D1B056405120B1A436308AC4CF60716
:102F400014401C43640064083443281C211C03B053
:102F50003CBC90469946A246AB46F0BDA24B9C4273
:102F6000BED080231B041A43382E00DD03E11F2E40
:102F700000DD3FE12020831B9946131C49468B400E
:102F80009C46019B6046F34003430198F240884011
:102F9000011C481E81410B43EB1A9D4280411D1CC0
:102FA000BA1A4042171A3B0200D4A8E07A02560A25
:102FB000002E00D1CAE0301C00F0F0FB031C083BDF
:102FC0001F2B00DDCBE02822291C121AD1409E4085
:102FD0000A1C9D4032439C4200DDC8E01C1B671C5C
:102FE0001F2F00DDEDE01F23291C1C1B131CA54017
:102FF000A340F9406C1EA541FA4019430D43171C2C
:1030000000246DE78023012642461B043B40164006
:10301000002B00D07BE7744BED0878070543FA08D6
:103020009C423BD012036405120B640D7EE7231A09
:103030009A46002B00DCA5E0002844D06A48844270
:1030400000D14DE78020000402435346382B00DCBA
:103050001CE1019B1A43511E8A41D1B20022491939
:10306000A94280410D1CD219404217183B0246D597
:103070005D4B01349C4200D169E101205B4A6B0841
:103080003A4028401843D5070543570828E7131C42
:1030900001990B4300D111E74B4613E72B1C134357
:1030A00051D080231B031A431203120B3EE7013E4B
:1030B000002E00D080E0691A8D429B41BA1A5B4213
:1030C000D71A0D1C6FE7101C019B184300D107E7AE
:1030D00001235B429C46E2445346002B00D002E1B0
:1030E000019BD2195919A9429B415B42D7180D1C6B
:1030F000BCE76346034300D128E1071C65466B0724
:1031000000D0F0E6012643461E4084E7002E00D0A2
:1031100081E0601C4005400D012800DC07E10199B9
:10312000681A84466545B641B81A7642861B300255
:1031300000D4A1E08C464D1BAC458941D21B4942CD
:10314000561A984634E700220025EFE6281C00F0C6
:1031500025FB2030031C083B1F2B00DC33E7021C3F
:10316000283A95402A1C00259C4200DC36E71F4F78
:10317000E41A1740B4E6019B1A43511E8A41D3B2A8
:10318000002209E7002B00D001E1601C43055B0D24
:10319000012B00DCB0E0144B984200D11EE1019BF2
:1031A000D2195919A9429B415B42D2184908D50747
:1031B0000D435708041C93E60B4B9C4200D0D3E60A
:1031C0008EE6211C131C1F39CB40191C202F00D167
:1031D0008EE03F231C1BA24015436A1E9541002729
:1031E0000D4300248BE7C046FF070000FFFF7FFF71
:1031F000FFFF0F80331C101C203BD840202E79D0BD
:1032000040239B1B9A40131C019A1343591E8B4168
:1032100000220343C0E6002C53D0C74CA04200D18B
:10322000B0E0802471428946240427434946382966
:1032300000DDCDE01F2900DD59E120243E1C611A8C
:103240008E408A46B04649462E1CCE405146B44672
:103250008D4064464646494626436C1EA541CF40F4
:1032600035430199D71B8C464D1BAC4592415242C8
:10327000BF1A041C984696E663466546334300D061
:1032800096E60026002700240025C4E61F2B61DCFB
:103290002020C31A9B46131C59468B405146994621
:1032A000019BCB409C464B46604603439C465B4695
:1032B000019999406346481E814119435346DA40BB
:1032C000CDE63C1C2C435DD0F1438946002955D105
:1032D0000199D21B8C464D1BAC4589414942571A76
:1032E000041C98465FE69448844200D0ADE6F7E5BA
:1032F000002271E7002387E73B1C2B43002C00D002
:10330000DAE0002B00D113E1131C01990B4300D12B
:10331000E6E54919A9429B41D2195B42D7183B0205
:1033200000D421E1854B0D1C1F40041CD8E5381C3E
:103330002843002C40D1002800D083E0101C0199C4
:10334000084303D0171C0D1C9846C9E5002600272A
:10335000002560E65046131C2038C340181C534615
:10336000202B00D1C1E0402351465B1A9A400199BD
:1033700011434A1E91410022014370E66E4CA04267
:1033800000D053E7171C019D041C9846A8E5002CAB
:1033900028D13C1C2C4300D18AE0DB439A46002B09
:1033A00000D082E0019BD2199C4665449D42894130
:1033B00049425718041C59E600285BD1101C01999A
:1033C000084300D1A4E0171C0D1C98465A4C87E511
:1033D0003D436F1EBD410027EDB242E7041C0027AC
:1033E000002518E6544CA04262D0534680245B422C
:1033F0009A46240427435346382B00DD8EE01F2BCA
:1034000000DD9DE02024E31A9B463B1C59468B407F
:10341000514699462B1CCB409C464B466446234361
:103420009C465B469D4063466C1EA541CF401D43B4
:10343000019BBF189C4665449D4292415242BF1871
:10344000041C13E6101C0199084300D148E5681AD2
:10345000844685428041BE1A4042301A060200D49A
:1034600047E68C464D1BAC458941D21B4942571A51
:10347000984635E5101C0199084334D0802478071C
:10348000ED08FF0824032843274208D0D608264227
:1034900005D1C90852070A43101C371C9846FF0083
:1034A000420F1743C500244C1AE5234CA042A2D179
:1034B000171C019D041C13E5002B35D0131C01992A
:1034C0000B4310D080247807ED08FF08240328431D
:1034D0002742E4D0D3082342E1D1C90852070A4366
:1034E000101C1F1CDBE7144CFAE400223FE74C469B
:1034F0003E1C203CE6404946341C202932D0402660
:10350000761AB7403D436F1EBD4100272543A8E60C
:1035100080270026FF03084C00257CE53D436F1EF5
:10352000BD410027EDB283E7171C019D024CD7E493
:10353000171C019DD4E4C046FF070000FFFF7FFF7A
:1035400054463B1C203CE3401C1C5346202B0DD012
:10355000402351465B1A9F403D436F1EBD410027EB
:10356000254365E70027CDE70D1CC8E50027F3E7F5
:1035700010B5041E10D000F011F9144A121A0A28CE
:103580001ADC0B23211C1B1AD94015300B035205E2
:1035900084401B0B520D01E00022002300211B037D
:1035A000201C1C0B0B0D1B052343094C120523404B
:1035B00013435B00590810BD031C0B3B9C40520594
:1035C00023031B0B520D0024E8E7C0461E04000035
:1035D000FFFF0F804200120E511C38B5C9B24302E2
:1035E0005D0AC40F012915DDE02189008C466D07B5
:1035F0001B0B62440021281C0D0D2D052B431C4D77
:1036000052052B40520813435B00E4075B08234339
:10361000191C38BD002A15D1002D1FD0281C00F020
:10362000BDF80A281DDC0B232A1C1B1ADA40131CC8
:10363000021C153295400F4A1B03121A52051B0B30
:10364000520DD7E7002D06D080221B0B1203134327
:103650006D07094ACEE7084A0023CBE70022002382
:10366000C8E7031C0B3B9D402B1C0025E3E7C0462D
:10367000FFFF0F8089030000FF07000070B50B03F8
:103680004D00440F6D0D5B0A23436C1C6405C90F8C
:10369000C200640D012C2ADD3B4C2C19FE2C1ADCD7
:1036A000002C35DD8001451EA841DB000343520F8D
:1036B00013435A0704D00F221A40042A00D00433BF
:1036C0008022D2041A4027D00134FF2C03D09B0162
:1036D0005B0AE4B201E0FF2400235B02E4055B0A1D
:1036E00023435B00C9075B080B43181C70BD002D0A
:1036F00006D113430ED100245B025B0AE4B2ECE76F
:103700001A43E8D08020DB0080040343FF24D0E785
:1037100017340CDA05230024DB08FF2CECD1002B36
:103720002DD08022D20313435B025B0AD5E78024AD
:10373000164824042343401B1F280DDC144CA446C8
:103740006544AB401C1C131CAB405D1EAB41C2402A
:10375000234313430024ACE71E1C0E4C641BE640BD
:10376000341C20280DD00C4884466544AB401D1CF9
:103770002A43531E9A41131C2343002499E7002334
:10378000ABE70025F4E7C04680FCFFFF9E03000086
:1037900082FCFFFF7E030000A2FCFFFF1C2101232F
:1037A0001B04984201D3000C10391B0A984201D324
:1037B000000A08391B09984201D30009043902A202
:1037C000105C40187047C046040302020101010169
:1037D000000000000000000069009600C800FA0028
:1037E0002C015E019001CC01F40126025802BC02BA
:1037F000EE02200352038403B603E803C4099808C9
:10380000D00708074006AA0514057E041A04B6036B
:103810005203BC028A0258022602F401C20190013E
:10382000621800082A180008461800081E18000828
:10383000461800088A170008461800081E180008D5
:103840002A1800082A1800088A1700081E180008FD
:10385000C8180008C8180008C81800084C18000844
:103860002A1800082A180008121900081C18000855
:10387000121900088A170008121900081C180008FD
:103880002A1800082A1800088A1700081C180008BF
:10389000C8180008C8180008C8180008F61800085A
:1038A000B61A0008AE1A0008AE1A0008A61A0008D8
:1038B000F8190008F81900089C1A0008A61A000850
:1038C000F81900089C1A0008F8190008A61A000840
:1038D000FA190008FA190008FA190008401B000834
:1038E000D4240008C2230008A8240008AE2300083E
:1038F000A8240008B2240008A8240008AE23000869
:10390000C2230008C2230008B2240008AE23000826
:10391000B8230008B8230008B82300081A270008B5
:10392000342B0008122B0008122B0008062B00086D
:10393000FA290008FA290008FA2A0008062B0008CC
:10394000FA290008FA2A0008FA290008062B0008BC
:10395000FE290008FE290008FE290008142D000891
:103960000000000001020304010203040607080925
:10397000A0860100400D0300010000003700000098
:103980000406000094DE0000007028473B010000A0
:1039900069000000BD150000EDF805002004904806
:1039A0008C0000008C0000008E2600004A1B0E00D8
:0C39B000B0E1294969000000010000009E
:0400000508000000EF
:00000001FF
